{
  "_format": "hh-sol-artifact-1",
  "contractName": "MockFHERC20",
  "sourceName": "src/mocks/MockFHERC20.sol",
  "abi": [
    {
      "inputs": [
        {
          "internalType": "string",
          "name": "name_",
          "type": "string"
        },
        {
          "internalType": "string",
          "name": "symbol_",
          "type": "string"
        }
      ],
      "stateMutability": "nonpayable",
      "type": "constructor"
    },
    {
      "inputs": [
        {
          "internalType": "bytes32",
          "name": "handle",
          "type": "bytes32"
        },
        {
          "internalType": "address",
          "name": "sender",
          "type": "address"
        }
      ],
      "name": "SenderNotAllowedToUseHandle",
      "type": "error"
    },
    {
      "inputs": [],
      "name": "ZamaProtocolUnsupported",
      "type": "error"
    },
    {
      "anonymous": false,
      "inputs": [
        {
          "indexed": true,
          "internalType": "address",
          "name": "owner",
          "type": "address"
        },
        {
          "indexed": true,
          "internalType": "address",
          "name": "spender",
          "type": "address"
        }
      ],
      "name": "Approval",
      "type": "event"
    },
    {
      "anonymous": false,
      "inputs": [
        {
          "indexed": true,
          "internalType": "address",
          "name": "from",
          "type": "address"
        },
        {
          "indexed": true,
          "internalType": "address",
          "name": "to",
          "type": "address"
        }
      ],
      "name": "Transfer",
      "type": "event"
    },
    {
      "inputs": [
        {
          "internalType": "address",
          "name": "",
          "type": "address"
        },
        {
          "internalType": "address",
          "name": "",
          "type": "address"
        }
      ],
      "name": "allowance",
      "outputs": [
        {
          "internalType": "euint64",
          "name": "",
          "type": "bytes32"
        }
      ],
      "stateMutability": "nonpayable",
      "type": "function"
    },
    {
      "inputs": [
        {
          "internalType": "address",
          "name": "spender",
          "type": "address"
        }
      ],
      "name": "approveEncrypted",
      "outputs": [],
      "stateMutability": "nonpayable",
      "type": "function"
    },
    {
      "inputs": [
        {
          "internalType": "address",
          "name": "account",
          "type": "address"
        }
      ],
      "name": "balanceOf",
      "outputs": [
        {
          "internalType": "euint64",
          "name": "",
          "type": "bytes32"
        }
      ],
      "stateMutability": "view",
      "type": "function"
    },
    {
      "inputs": [],
      "name": "confidentialProtocolId",
      "outputs": [
        {
          "internalType": "uint256",
          "name": "",
          "type": "uint256"
        }
      ],
      "stateMutability": "view",
      "type": "function"
    },
    {
      "inputs": [],
      "name": "decimals",
      "outputs": [
        {
          "internalType": "uint8",
          "name": "",
          "type": "uint8"
        }
      ],
      "stateMutability": "view",
      "type": "function"
    },
    {
      "inputs": [
        {
          "internalType": "address",
          "name": "to",
          "type": "address"
        },
        {
          "internalType": "uint256",
          "name": "amount",
          "type": "uint256"
        }
      ],
      "name": "mintClear",
      "outputs": [],
      "stateMutability": "nonpayable",
      "type": "function"
    },
    {
      "inputs": [],
      "name": "name",
      "outputs": [
        {
          "internalType": "string",
          "name": "",
          "type": "string"
        }
      ],
      "stateMutability": "view",
      "type": "function"
    },
    {
      "inputs": [],
      "name": "symbol",
      "outputs": [
        {
          "internalType": "string",
          "name": "",
          "type": "string"
        }
      ],
      "stateMutability": "view",
      "type": "function"
    },
    {
      "inputs": [
        {
          "internalType": "address",
          "name": "to",
          "type": "address"
        },
        {
          "internalType": "externalEuint64",
          "name": "encAmount",
          "type": "bytes32"
        },
        {
          "internalType": "bytes",
          "name": "proof",
          "type": "bytes"
        }
      ],
      "name": "transfer",
      "outputs": [
        {
          "internalType": "bool",
          "name": "",
          "type": "bool"
        }
      ],
      "stateMutability": "nonpayable",
      "type": "function"
    },
    {
      "inputs": [
        {
          "internalType": "address",
          "name": "from",
          "type": "address"
        },
        {
          "internalType": "address",
          "name": "to",
          "type": "address"
        },
        {
          "internalType": "externalEuint64",
          "name": "encAmount",
          "type": "bytes32"
        },
        {
          "internalType": "bytes",
          "name": "proof",
          "type": "bytes"
        }
      ],
      "name": "transferFrom",
      "outputs": [
        {
          "internalType": "bool",
          "name": "",
          "type": "bool"
        }
      ],
      "stateMutability": "nonpayable",
      "type": "function"
    }
  ],
  "bytecode": "0x608060405234801562000010575f80fd5b50604051620015d8380380620015d8833981016040819052620000339162000382565b620000ea620000416200010f565b80517f9e7b61f58c47dc699ac88507c4f5bb9f121c03808c5676a8078fe583e464970080546001600160a01b03199081166001600160a01b039384161790915560208301517f9e7b61f58c47dc699ac88507c4f5bb9f121c03808c5676a8078fe583e46497018054831691841691909117905560408301517f9e7b61f58c47dc699ac88507c4f5bb9f121c03808c5676a8078fe583e46497028054909216921691909117905550565b5f620000f7838262000472565b50600162000106828262000472565b5050506200053e565b604080516060810182525f808252602082018190529181019190915246600103620001a9575060408051606080820183525f8083526020808401829052928401528251908101835273ca2e8f1f656cd25c01f05d0b243ab1ecd4a8ffb6815273d82385dada1ae3e969447f20a3164f6213100e75918101919091527377627828a55156b04ac0dc0eb30467f1a552bb039181019190915290565b4662aa36a70362000229575060408051606080820183525f8083526020808401829052928401528251908101835273f0ffdc93b7e186bc2f8cb3daa75d86d1930a433d81527392c920834ec8941d2c77d188936e1f7a6f49c1279181019190915273be0e383937d564d7ff0bc3b46c51f0bf8d5c311a9181019190915290565b46617a6903620002a8575060408051606080820183525f808352602080840182905292840152825190810183527350157cffd6bbfa2dece204a89ec419c23ef5755d815273e3a9105a3a932253a70f126eb1e3b589c643dd249181019190915273901f8942346f7ab3a01f6d7613119bca447bb0309181019190915290565b6040516373cac13b60e01b815260040160405180910390fd5b634e487b7160e01b5f52604160045260245ffd5b5f82601f830112620002e5575f80fd5b81516001600160401b0380821115620003025762000302620002c1565b604051601f8301601f19908116603f011681019082821181831017156200032d576200032d620002c1565b81604052838152602092508660208588010111156200034a575f80fd5b5f91505b838210156200036d57858201830151818301840152908201906200034e565b5f602085830101528094505050505092915050565b5f806040838503121562000394575f80fd5b82516001600160401b0380821115620003ab575f80fd5b620003b986838701620002d5565b93506020850151915080821115620003cf575f80fd5b50620003de85828601620002d5565b9150509250929050565b600181811c90821680620003fd57607f821691505b6020821081036200041c57634e487b7160e01b5f52602260045260245ffd5b50919050565b601f8211156200046d57805f5260205f20601f840160051c81016020851015620004495750805b601f840160051c820191505b818110156200046a575f815560010162000455565b50505b505050565b81516001600160401b038111156200048e576200048e620002c1565b620004a6816200049f8454620003e8565b8462000422565b602080601f831160018114620004dc575f8415620004c45750858301515b5f19600386901b1c1916600185901b17855562000536565b5f85815260208120601f198616915b828110156200050c57888601518255948401946001909101908401620004eb565b50858210156200052a57878501515f19600388901b60f8161c191681555b505060018460011b0185555b505050505050565b61108c806200054c5f395ff3fe608060405234801561000f575f80fd5b506004361061009b575f3560e01c806387c891521161006357806387c89152146101455780638927b0301461015857806395d89b41146101605780639a09435214610168578063dd62ed3e1461017b575f80fd5b806306fdde031461009f578063313ce567146100bd57806370a08231146100d75780637b7e0a5a1461010d5780637d0680c514610130575b5f80fd5b6100a761018e565b6040516100b49190610d78565b60405180910390f35b6100c5601281565b60405160ff90911681526020016100b4565b6100ff6100e5366004610da5565b6001600160a01b03165f9081526002602052604090205490565b6040519081526020016100b4565b61012061011b366004610e03565b610219565b60405190151581526020016100b4565b61014361013e366004610da5565b6103a2565b005b610143610153366004610e59565b6103fa565b6100ff61046a565b6100a7610478565b610120610176366004610e81565b610485565b6100ff610189366004610eeb565b6106b6565b5f805461019a90610f1c565b80601f01602080910402602001604051908101604052809291908181526020018280546101c690610f1c565b80156102115780601f106101e857610100808354040283529160200191610211565b820191905f5260205f20905b8154815290600101906020018083116101f457829003601f168201915b505050505081565b5f8061025a8585858080601f0160208091040260200160405190810160405280939291908181526020018383808284375f920191909152506106c992505050565b335f908152600260205260408120549192509061027890839061072f565b335f908152600260205260409020549091506102ae90829061029a908561075d565b335f9081526002602052604090205461078b565b335f9081526002602052604090208190556102c8906107d4565b50335f818152600260205260409020546102e1916107f4565b506001600160a01b0387165f9081526002602052604081205461031991610314908490869061030f90610817565b61078b565b61082d565b6001600160a01b0388165f90815260026020526040902081905561033c906107d4565b506001600160a01b0387165f9081526002602052604090205461035f90886107f4565b506040516001600160a01b0388169033907f4853ae1b4d437c4255ac16cd3ceda3465975023f27cb141584cd9d44440fed82905f90a35060019695505050505050565b335f8181526003602090815260408083206001600160a01b0386168085529252808320805460ff19166001179055519092917ff37f546c25e850257cc0c94f92bec94a17e2f0e884ddda268a25d8144b70eb6a91a350565b6001600160a01b0382165f9081526002602052604090205461041f9061031483610817565b6001600160a01b0383165f908152600260205260409020819055610442906107d4565b506001600160a01b0382165f9081526002602052604090205461046590836107f4565b505050565b5f61047361085b565b905090565b6001805461019a90610f1c565b6001600160a01b0385165f90815260036020908152604080832033845290915281205460ff166104fc5760405162461bcd60e51b815260206004820152601960248201527f4d6f636b464845524332303a206e6f7420617070726f7665640000000000000060448201526064015b60405180910390fd5b5f61053c8585858080601f0160208091040260200160405190810160405280939291908181526020018383808284375f920191909152506106c992505050565b6001600160a01b0388165f908152600260205260408120549192509061056390839061072f565b6001600160a01b0389165f908152600260205260409020549091506105ab90829061058e908561075d565b6001600160a01b038b165f9081526002602052604090205461078b565b6001600160a01b0389165f9081526002602052604090208190556105ce906107d4565b506001600160a01b0388165f908152600260205260409020546105f190896107f4565b506001600160a01b0387165f9081526002602052604081205461061f91610314908490869061030f90610817565b6001600160a01b0388165f908152600260205260409020819055610642906107d4565b506001600160a01b0387165f9081526002602052604090205461066590886107f4565b50866001600160a01b0316886001600160a01b03167f4853ae1b4d437c4255ac16cd3ceda3465975023f27cb141584cd9d44440fed8260405160405180910390a36001925050505b95945050505050565b5f6106c05f610817565b90505b92915050565b5f81515f146106e5576106de8383600561088f565b90506106c3565b825f8190036106ff576106f75f610817565b9150506106c3565b6107098133610989565b6106de57604051630276b5d960e01b8152600481018290523360248201526044016104f3565b5f826107415761073e5f610817565b92505b816107525761074f5f610817565b91505b6106c083835f610a15565b5f8261076f5761076c5f610817565b92505b816107805761077d5f610817565b91505b6106c083835f610ac2565b5f8361079d5761079a5f610b25565b93505b826107ae576107ab5f610817565b92505b816107bf576107bc5f610817565b91505b6107ca848484610b40565b90505b9392505050565b5f816107e6576107e35f610817565b91505b6107f08230610bcd565b5090565b5f82610806576108035f610817565b92505b6108108383610bcd565b5090919050565b5f6106c38267ffffffffffffffff166005610c43565b5f8261083f5761083c5f610817565b92505b816108505761084d5f610817565b91505b6106c083835f610cd2565b5f4660010361086a5750600190565b4662aa36a70361087b575061271190565b46617a690361088a57505f1990565b505f90565b5f805160206110178339815191525460405163045fc19560e11b81525f915f80516020611037833981519152916001600160a01b03909116906308bf832a906108e2908890339089908990600401610f74565b6020604051808303815f875af11580156108fe573d5f803e3d5ffd5b505050506040513d601f19601f820116820180604052508101906109229190610fac565b8154604051630f8e573b60e21b8152600481018390523360248201529193506001600160a01b031690633e395cec906044015f604051808303815f87803b15801561096b575f80fd5b505af115801561097d573d5f803e3d5ffd5b50505050509392505050565b5f805f8051602061103783398151915280546040516382027b6d60e01b8152600481018790526001600160a01b0386811660248301529293509116906382027b6d90604401602060405180830381865afa1580156109e9573d5f803e3d5ffd5b505050506040513d601f19601f82011682018060405250810190610a0d9190610fc3565b949350505050565b5f808215610a285750600160f81b610a2b565b505f5b5f8051602061101783398151915254604051631d44e90160e21b81525f80516020611037833981519152916001600160a01b031690637513a40490610a7890899089908790600401610fe2565b6020604051808303815f875af1158015610a94573d5f803e3d5ffd5b505050506040513d601f19601f82011682018060405250810190610ab89190610fac565b9695505050505050565b5f808215610ad55750600160f81b610ad8565b505f5b5f80516020611017833981519152546040516303056db360e31b81525f80516020611037833981519152916001600160a01b03169063182b6d9890610a7890899089908790600401610fe2565b5f6106c382610b34575f610b37565b60015b60ff165f610c43565b5f805f805160206110378339815191526001810154604051637702dcff60e01b81526004810188905260248101879052604481018690529192506001600160a01b031690637702dcff906064016020604051808303815f875af1158015610ba9573d5f803e3d5ffd5b505050506040513d601f19601f820116820180604052508101906106ad9190610fac565b5f5f805160206110378339815191528054604051635ca4b5b160e11b8152600481018690526001600160a01b03858116602483015292935091169063b9496b62906044015f604051808303815f87803b158015610c28575f80fd5b505af1158015610c3a573d5f803e3d5ffd5b50505050505050565b5f8051602061101783398151915254604051639cd07acb60e01b81525f915f80516020611037833981519152916001600160a01b0390911690639cd07acb90610c929087908790600401611002565b6020604051808303815f875af1158015610cae573d5f803e3d5ffd5b505050506040513d601f19601f82011682018060405250810190610a0d9190610fac565b5f808215610ce55750600160f81b610ce8565b505f5b5f805160206110178339815191525460405163022f65e760e31b81525f80516020611037833981519152916001600160a01b03169063117b2f3890610a7890899089908790600401610fe2565b5f81518084525f5b81811015610d5957602081850181015186830182015201610d3d565b505f602082860101526020601f19601f83011685010191505092915050565b602081525f6106c06020830184610d35565b80356001600160a01b0381168114610da0575f80fd5b919050565b5f60208284031215610db5575f80fd5b6106c082610d8a565b5f8083601f840112610dce575f80fd5b50813567ffffffffffffffff811115610de5575f80fd5b602083019150836020828501011115610dfc575f80fd5b9250929050565b5f805f8060608587031215610e16575f80fd5b610e1f85610d8a565b935060208501359250604085013567ffffffffffffffff811115610e41575f80fd5b610e4d87828801610dbe565b95989497509550505050565b5f8060408385031215610e6a575f80fd5b610e7383610d8a565b946020939093013593505050565b5f805f805f60808688031215610e95575f80fd5b610e9e86610d8a565b9450610eac60208701610d8a565b935060408601359250606086013567ffffffffffffffff811115610ece575f80fd5b610eda88828901610dbe565b969995985093965092949392505050565b5f8060408385031215610efc575f80fd5b610f0583610d8a565b9150610f1360208401610d8a565b90509250929050565b600181811c90821680610f3057607f821691505b602082108103610f4e57634e487b7160e01b5f52602260045260245ffd5b50919050565b60548110610f7057634e487b7160e01b5f52602160045260245ffd5b9052565b8481526001600160a01b03841660208201526080604082018190525f90610f9d90830185610d35565b90506106ad6060830184610f54565b5f60208284031215610fbc575f80fd5b5051919050565b5f60208284031215610fd3575f80fd5b815180151581146107cd575f80fd5b92835260208301919091526001600160f81b031916604082015260600190565b828152604081016107cd6020830184610f5456fe9e7b61f58c47dc699ac88507c4f5bb9f121c03808c5676a8078fe583e46497019e7b61f58c47dc699ac88507c4f5bb9f121c03808c5676a8078fe583e4649700a2646970667358221220070b6159b8887e23cfac11cee64efc60d9ad4f843db49ffb3bbc58db99091cfa64736f6c63430008180033",
  "linkReferences": {},
  "deployedLinkReferences": {}
}