{
  "_format": "hh-sol-artifact-1",
  "contractName": "AnimaRegistryRouter",
  "sourceName": "src/AnimaRegistryRouter.sol",
  "abi": [
    {
      "inputs": [
        {
          "internalType": "address",
          "name": "_officialRegistry",
          "type": "address"
        }
      ],
      "stateMutability": "nonpayable",
      "type": "constructor"
    },
    {
      "inputs": [],
      "name": "ReentrancyGuardReentrantCall",
      "type": "error"
    },
    {
      "inputs": [
        {
          "internalType": "address",
          "name": "token",
          "type": "address"
        }
      ],
      "name": "SafeERC20FailedOperation",
      "type": "error"
    },
    {
      "inputs": [],
      "name": "ZamaProtocolUnsupported",
      "type": "error"
    },
    {
      "anonymous": false,
      "inputs": [
        {
          "indexed": true,
          "internalType": "address",
          "name": "user",
          "type": "address"
        },
        {
          "indexed": true,
          "internalType": "address",
          "name": "token",
          "type": "address"
        }
      ],
      "name": "DecryptPermitGranted",
      "type": "event"
    },
    {
      "anonymous": false,
      "inputs": [
        {
          "indexed": true,
          "internalType": "address",
          "name": "user",
          "type": "address"
        },
        {
          "indexed": true,
          "internalType": "address",
          "name": "token",
          "type": "address"
        },
        {
          "indexed": false,
          "internalType": "uint256",
          "name": "amount",
          "type": "uint256"
        }
      ],
      "name": "Faucet",
      "type": "event"
    },
    {
      "anonymous": false,
      "inputs": [
        {
          "indexed": true,
          "internalType": "address",
          "name": "user",
          "type": "address"
        },
        {
          "indexed": true,
          "internalType": "uint256",
          "name": "pairId",
          "type": "uint256"
        },
        {
          "indexed": false,
          "internalType": "address",
          "name": "erc7984",
          "type": "address"
        }
      ],
      "name": "Unwrapped",
      "type": "event"
    },
    {
      "anonymous": false,
      "inputs": [
        {
          "indexed": true,
          "internalType": "address",
          "name": "user",
          "type": "address"
        },
        {
          "indexed": true,
          "internalType": "uint256",
          "name": "pairId",
          "type": "uint256"
        },
        {
          "indexed": false,
          "internalType": "address",
          "name": "erc7984",
          "type": "address"
        }
      ],
      "name": "Wrapped",
      "type": "event"
    },
    {
      "inputs": [],
      "name": "confidentialProtocolId",
      "outputs": [
        {
          "internalType": "uint256",
          "name": "",
          "type": "uint256"
        }
      ],
      "stateMutability": "view",
      "type": "function"
    },
    {
      "inputs": [
        {
          "internalType": "address",
          "name": "token",
          "type": "address"
        },
        {
          "internalType": "uint256",
          "name": "amount",
          "type": "uint256"
        }
      ],
      "name": "faucet",
      "outputs": [],
      "stateMutability": "nonpayable",
      "type": "function"
    },
    {
      "inputs": [
        {
          "internalType": "uint256",
          "name": "pairId",
          "type": "uint256"
        }
      ],
      "name": "getPair",
      "outputs": [
        {
          "components": [
            {
              "internalType": "address",
              "name": "erc20",
              "type": "address"
            },
            {
              "internalType": "address",
              "name": "erc7984",
              "type": "address"
            },
            {
              "internalType": "string",
              "name": "name",
              "type": "string"
            },
            {
              "internalType": "string",
              "name": "symbol",
              "type": "string"
            },
            {
              "internalType": "uint8",
              "name": "decimals",
              "type": "uint8"
            }
          ],
          "internalType": "struct IZamaWrappersRegistry.Pair",
          "name": "",
          "type": "tuple"
        }
      ],
      "stateMutability": "view",
      "type": "function"
    },
    {
      "inputs": [
        {
          "internalType": "address",
          "name": "erc20",
          "type": "address"
        }
      ],
      "name": "getPairByERC20",
      "outputs": [
        {
          "components": [
            {
              "internalType": "address",
              "name": "erc20",
              "type": "address"
            },
            {
              "internalType": "address",
              "name": "erc7984",
              "type": "address"
            },
            {
              "internalType": "string",
              "name": "name",
              "type": "string"
            },
            {
              "internalType": "string",
              "name": "symbol",
              "type": "string"
            },
            {
              "internalType": "uint8",
              "name": "decimals",
              "type": "uint8"
            }
          ],
          "internalType": "struct IZamaWrappersRegistry.Pair",
          "name": "",
          "type": "tuple"
        }
      ],
      "stateMutability": "view",
      "type": "function"
    },
    {
      "inputs": [
        {
          "internalType": "address",
          "name": "erc7984",
          "type": "address"
        }
      ],
      "name": "getPairByERC7984",
      "outputs": [
        {
          "components": [
            {
              "internalType": "address",
              "name": "erc20",
              "type": "address"
            },
            {
              "internalType": "address",
              "name": "erc7984",
              "type": "address"
            },
            {
              "internalType": "string",
              "name": "name",
              "type": "string"
            },
            {
              "internalType": "string",
              "name": "symbol",
              "type": "string"
            },
            {
              "internalType": "uint8",
              "name": "decimals",
              "type": "uint8"
            }
          ],
          "internalType": "struct IZamaWrappersRegistry.Pair",
          "name": "",
          "type": "tuple"
        }
      ],
      "stateMutability": "view",
      "type": "function"
    },
    {
      "inputs": [
        {
          "internalType": "address",
          "name": "token",
          "type": "address"
        }
      ],
      "name": "grantDecryptPermit",
      "outputs": [],
      "stateMutability": "nonpayable",
      "type": "function"
    },
    {
      "inputs": [],
      "name": "officialPairCount",
      "outputs": [
        {
          "internalType": "uint256",
          "name": "",
          "type": "uint256"
        }
      ],
      "stateMutability": "view",
      "type": "function"
    },
    {
      "inputs": [],
      "name": "officialRegistry",
      "outputs": [
        {
          "internalType": "contract IZamaWrappersRegistry",
          "name": "",
          "type": "address"
        }
      ],
      "stateMutability": "view",
      "type": "function"
    },
    {
      "inputs": [
        {
          "internalType": "uint256",
          "name": "pairId",
          "type": "uint256"
        },
        {
          "internalType": "uint256",
          "name": "erc20Amount",
          "type": "uint256"
        }
      ],
      "name": "unwrap",
      "outputs": [],
      "stateMutability": "nonpayable",
      "type": "function"
    },
    {
      "inputs": [
        {
          "internalType": "uint256",
          "name": "pairId",
          "type": "uint256"
        },
        {
          "internalType": "uint256",
          "name": "erc20Amount",
          "type": "uint256"
        }
      ],
      "name": "wrap",
      "outputs": [],
      "stateMutability": "nonpayable",
      "type": "function"
    }
  ],
  "bytecode": "0x60a060405234801561000f575f80fd5b5060405161126c38038061126c83398101604081905261002e916102c6565b6100e2610039610117565b80517f9e7b61f58c47dc699ac88507c4f5bb9f121c03808c5676a8078fe583e464970080546001600160a01b03199081166001600160a01b039384161790915560208301517f9e7b61f58c47dc699ac88507c4f5bb9f121c03808c5676a8078fe583e46497018054831691841691909117905560408301517f9e7b61f58c47dc699ac88507c4f5bb9f121c03808c5676a8078fe583e46497028054909216921691909117905550565b60017f9b779b17422d0df92223018b32b4d1fa46e071723d6817e2486d003becc55f00556001600160a01b03166080526102f3565b604080516060810182525f8082526020820181905291810191909152466001036101b0575060408051606080820183525f8083526020808401829052928401528251908101835273ca2e8f1f656cd25c01f05d0b243ab1ecd4a8ffb6815273d82385dada1ae3e969447f20a3164f6213100e75918101919091527377627828a55156b04ac0dc0eb30467f1a552bb039181019190915290565b4662aa36a70361022f575060408051606080820183525f8083526020808401829052928401528251908101835273f0ffdc93b7e186bc2f8cb3daa75d86d1930a433d81527392c920834ec8941d2c77d188936e1f7a6f49c1279181019190915273be0e383937d564d7ff0bc3b46c51f0bf8d5c311a9181019190915290565b46617a69036102ad575060408051606080820183525f808352602080840182905292840152825190810183527350157cffd6bbfa2dece204a89ec419c23ef5755d815273e3a9105a3a932253a70f126eb1e3b589c643dd249181019190915273be0e383937d564d7ff0bc3b46c51f0bf8d5c311a9181019190915290565b6040516373cac13b60e01b815260040160405180910390fd5b5f602082840312156102d6575f80fd5b81516001600160a01b03811681146102ec575f80fd5b9392505050565b608051610f386103345f395f818160cc015281816101b501528181610497015281816106bc01528181610755015281816107a201526107dc0152610f385ff3fe608060405234801561000f575f80fd5b506004361061009b575f3560e01c80638927b030116100635780638927b03014610131578063968fcff214610147578063a47b0fd414610167578063bdf391cc1461017a578063cf1fd9e11461018d575f80fd5b806325ded5861461009f5780632a149461146100b457806358f253e2146100c75780636e2866711461010b5780637b56c2b21461011e575b5f80fd5b6100b26100ad366004610b69565b610195565b005b6100b26100c2366004610ba0565b6103c9565b6100ee7f000000000000000000000000000000000000000000000000000000000000000081565b6040516001600160a01b0390911681526020015b60405180910390f35b6100b2610119366004610b69565b610477565b6100b261012c366004610bc2565b610579565b610139610687565b604051908152602001610102565b61015a610155366004610ba0565b610695565b6040516101029190610c39565b61015a610175366004610ba0565b61072e565b61015a610188366004610cab565b610784565b6101396107d9565b61019d61085a565b60405163172358f160e31b8152600481018390525f907f00000000000000000000000000000000000000000000000000000000000000006001600160a01b03169063b91ac788906024015f60405180830381865afa158015610201573d5f803e3d5ffd5b505050506040513d5f823e601f3d908101601f191682016040526102289190810190610d99565b60208101519091506001600160a01b031661025e5760405162461bcd60e51b815260040161025590610e5b565b60405180910390fd5b80516001600160a01b03166102c65760405162461bcd60e51b815260206004820152602860248201527f416e696d615265676973747279526f757465723a206e6f20756e6465726c79696044820152673733903a37b5b2b760c11b6064820152608401610255565b80516102dd906001600160a01b0316333085610888565b8051602082015160405163095ea7b360e01b81526001600160a01b0391821660048201526024810185905291169063095ea7b3906044016020604051808303815f875af1158015610330573d5f803e3d5ffd5b505050506040513d601f19601f820116820180604052508101906103549190610e9c565b506020818101516040516001600160a01b039091168152849133917f1dcb5a508170be4d49f81a2e679aea5a1a064f5e7c34d73cd8bc670305d74b1691015b60405180910390a3506103c560017f9b779b17422d0df92223018b32b4d1fa46e071723d6817e2486d003becc55f0055565b5050565b6040516370a0823160e01b81523360048201525f906001600160a01b038316906370a0823190602401602060405180830381865afa15801561040d573d5f803e3d5ffd5b505050506040513d601f19601f820116820180604052508101906104319190610ebb565b905061043d81336108c4565b506040516001600160a01b0383169033907fdf2032786b8e616fd65c01af820e18139187eee9bc43037851862a9fc2b63ceb905f90a35050565b61047f61085a565b60405163172358f160e31b8152600481018390525f907f00000000000000000000000000000000000000000000000000000000000000006001600160a01b03169063b91ac788906024015f60405180830381865afa1580156104e3573d5f803e3d5ffd5b505050506040513d5f823e601f3d908101601f1916820160405261050a9190810190610d99565b60208101519091506001600160a01b03166105375760405162461bcd60e51b815260040161025590610e5b565b6020818101516040516001600160a01b039091168152849133917f3455767417ddbc4f7e336856113e210e6d6f73acb6f04a466322eaf6a79896d39101610393565b5f81118015610592575069021e19e0c9bab24000008111155b6105e85760405162461bcd60e51b815260206004820152602160248201527f416e696d615265676973747279526f757465723a20666175636574206c696d696044820152601d60fa1b6064820152608401610255565b6040516340c10f1960e01b8152336004820152602481018290526001600160a01b038316906340c10f19906044015f604051808303815f87803b15801561062d575f80fd5b505af115801561063f573d5f803e3d5ffd5b50506040518381526001600160a01b03851692503391507f8df9ef7404c42e7288b0a32e4eabb433f845a4bbdf35bec2b0aebf43ca498d0c9060200160405180910390a35050565b5f6106906108e7565b905090565b61069d610b28565b604051634b47e7f960e11b81526001600160a01b0383811660048301527f0000000000000000000000000000000000000000000000000000000000000000169063968fcff2906024015b5f60405180830381865afa158015610701573d5f803e3d5ffd5b505050506040513d5f823e601f3d908101601f191682016040526107289190810190610d99565b92915050565b610736610b28565b60405163291ec3f560e21b81526001600160a01b0383811660048301527f0000000000000000000000000000000000000000000000000000000000000000169063a47b0fd4906024016106e7565b61078c610b28565b60405163172358f160e31b8152600481018390527f00000000000000000000000000000000000000000000000000000000000000006001600160a01b03169063b91ac788906024016106e7565b5f7f00000000000000000000000000000000000000000000000000000000000000006001600160a01b031663173fd1db6040518163ffffffff1660e01b8152600401602060405180830381865afa158015610836573d5f803e3d5ffd5b505050506040513d601f19601f820116820180604052508101906106909190610ebb565b61086261091b565b60027f9b779b17422d0df92223018b32b4d1fa46e071723d6817e2486d003becc55f0055565b61089684848484600161095f565b6108be57604051635274afe760e01b81526001600160a01b0385166004820152602401610255565b50505050565b5f826108d6576108d35f6109cc565b92505b6108e083836109e2565b5090919050565b5f466001036108f65750600190565b4662aa36a703610907575061271190565b46617a690361091657505f1990565b505f90565b7f9b779b17422d0df92223018b32b4d1fa46e071723d6817e2486d003becc55f005460020361095d57604051633ee5aeb560e01b815260040160405180910390fd5b565b6040516323b872dd60e01b5f8181526001600160a01b038781166004528616602452604485905291602083606481808c5af1925060015f511483166109bb5783831516156109af573d5f823e3d81fd5b5f883b113d1516831692505b604052505f60605295945050505050565b5f6107288267ffffffffffffffff166005610a6b565b5f7f9e7b61f58c47dc699ac88507c4f5bb9f121c03808c5676a8078fe583e46497008054604051635ca4b5b160e11b8152600481018690526001600160a01b03858116602483015292935091169063b9496b62906044015f604051808303815f87803b158015610a50575f80fd5b505af1158015610a62573d5f803e3d5ffd5b50505050505050565b7f9e7b61f58c47dc699ac88507c4f5bb9f121c03808c5676a8078fe583e464970154604051639cd07acb60e01b81525f917f9e7b61f58c47dc699ac88507c4f5bb9f121c03808c5676a8078fe583e4649700916001600160a01b0390911690639cd07acb90610ae09087908790600401610ed2565b6020604051808303815f875af1158015610afc573d5f803e3d5ffd5b505050506040513d601f19601f82011682018060405250810190610b209190610ebb565b949350505050565b6040518060a001604052805f6001600160a01b031681526020015f6001600160a01b0316815260200160608152602001606081526020015f60ff1681525090565b5f8060408385031215610b7a575f80fd5b50508035926020909101359150565b6001600160a01b0381168114610b9d575f80fd5b50565b5f60208284031215610bb0575f80fd5b8135610bbb81610b89565b9392505050565b5f8060408385031215610bd3575f80fd5b8235610bde81610b89565b946020939093013593505050565b5f5b83811015610c06578181015183820152602001610bee565b50505f910152565b5f8151808452610c25816020860160208601610bec565b601f01601f19169290920160200192915050565b602081525f60018060a01b0380845116602084015280602085015116604084015250604083015160a06060840152610c7460c0840182610c0e565b90506060840151601f19848303016080850152610c918282610c0e565b91505060ff60808501511660a08401528091505092915050565b5f60208284031215610cbb575f80fd5b5035919050565b634e487b7160e01b5f52604160045260245ffd5b60405160a0810167ffffffffffffffff81118282101715610cf957610cf9610cc2565b60405290565b5f82601f830112610d0e575f80fd5b815167ffffffffffffffff80821115610d2957610d29610cc2565b604051601f8301601f19908116603f01168101908282118183101715610d5157610d51610cc2565b81604052838152866020858801011115610d69575f80fd5b610d7a846020830160208901610bec565b9695505050505050565b805160ff81168114610d94575f80fd5b919050565b5f60208284031215610da9575f80fd5b815167ffffffffffffffff80821115610dc0575f80fd5b9083019060a08286031215610dd3575f80fd5b610ddb610cd6565b8251610de681610b89565b81526020830151610df681610b89565b6020820152604083015182811115610e0c575f80fd5b610e1887828601610cff565b604083015250606083015182811115610e2f575f80fd5b610e3b87828601610cff565b606083015250610e4d60808401610d84565b608082015295945050505050565b60208082526021908201527f416e696d615265676973747279526f757465723a20696e76616c6964207061696040820152603960f91b606082015260800190565b5f60208284031215610eac575f80fd5b81518015158114610bbb575f80fd5b5f60208284031215610ecb575f80fd5b5051919050565b8281526040810160548310610ef557634e487b7160e01b5f52602160045260245ffd5b826020830152939250505056fea264697066735822122024ef15977ac57e077a9f521f246d52aefef5a6827606e2765af26b6e52517f4c64736f6c63430008180033",
  "linkReferences": {},
  "deployedLinkReferences": {}
}