{
  "_format": "hh-sol-artifact-1",
  "contractName": "AnimaRegistryRouter",
  "sourceName": "src/AnimaRegistryRouter.sol",
  "abi": [
    {
      "inputs": [
        {
          "internalType": "address",
          "name": "_officialRegistry",
          "type": "address"
        }
      ],
      "stateMutability": "nonpayable",
      "type": "constructor"
    },
    {
      "inputs": [],
      "name": "ReentrancyGuardReentrantCall",
      "type": "error"
    },
    {
      "inputs": [],
      "name": "ZamaProtocolUnsupported",
      "type": "error"
    },
    {
      "anonymous": false,
      "inputs": [
        {
          "indexed": true,
          "internalType": "address",
          "name": "user",
          "type": "address"
        },
        {
          "indexed": true,
          "internalType": "address",
          "name": "token",
          "type": "address"
        }
      ],
      "name": "DecryptPermitGranted",
      "type": "event"
    },
    {
      "anonymous": false,
      "inputs": [
        {
          "indexed": true,
          "internalType": "address",
          "name": "user",
          "type": "address"
        },
        {
          "indexed": true,
          "internalType": "address",
          "name": "token",
          "type": "address"
        },
        {
          "indexed": false,
          "internalType": "uint256",
          "name": "amount",
          "type": "uint256"
        }
      ],
      "name": "Faucet",
      "type": "event"
    },
    {
      "anonymous": false,
      "inputs": [
        {
          "indexed": true,
          "internalType": "address",
          "name": "user",
          "type": "address"
        },
        {
          "indexed": true,
          "internalType": "uint256",
          "name": "pairId",
          "type": "uint256"
        },
        {
          "indexed": false,
          "internalType": "address",
          "name": "erc7984",
          "type": "address"
        }
      ],
      "name": "Unwrapped",
      "type": "event"
    },
    {
      "anonymous": false,
      "inputs": [
        {
          "indexed": true,
          "internalType": "address",
          "name": "user",
          "type": "address"
        },
        {
          "indexed": true,
          "internalType": "uint256",
          "name": "pairId",
          "type": "uint256"
        },
        {
          "indexed": false,
          "internalType": "address",
          "name": "erc7984",
          "type": "address"
        }
      ],
      "name": "Wrapped",
      "type": "event"
    },
    {
      "inputs": [],
      "name": "confidentialProtocolId",
      "outputs": [
        {
          "internalType": "uint256",
          "name": "",
          "type": "uint256"
        }
      ],
      "stateMutability": "view",
      "type": "function"
    },
    {
      "inputs": [
        {
          "internalType": "address",
          "name": "token",
          "type": "address"
        },
        {
          "internalType": "uint256",
          "name": "amount",
          "type": "uint256"
        }
      ],
      "name": "faucet",
      "outputs": [],
      "stateMutability": "nonpayable",
      "type": "function"
    },
    {
      "inputs": [
        {
          "internalType": "uint256",
          "name": "pairId",
          "type": "uint256"
        }
      ],
      "name": "getPair",
      "outputs": [
        {
          "components": [
            {
              "internalType": "address",
              "name": "erc20",
              "type": "address"
            },
            {
              "internalType": "address",
              "name": "erc7984",
              "type": "address"
            },
            {
              "internalType": "string",
              "name": "name",
              "type": "string"
            },
            {
              "internalType": "string",
              "name": "symbol",
              "type": "string"
            },
            {
              "internalType": "uint8",
              "name": "decimals",
              "type": "uint8"
            }
          ],
          "internalType": "struct IZamaWrappersRegistry.Pair",
          "name": "",
          "type": "tuple"
        }
      ],
      "stateMutability": "view",
      "type": "function"
    },
    {
      "inputs": [
        {
          "internalType": "address",
          "name": "erc20",
          "type": "address"
        }
      ],
      "name": "getPairByERC20",
      "outputs": [
        {
          "components": [
            {
              "internalType": "address",
              "name": "erc20",
              "type": "address"
            },
            {
              "internalType": "address",
              "name": "erc7984",
              "type": "address"
            },
            {
              "internalType": "string",
              "name": "name",
              "type": "string"
            },
            {
              "internalType": "string",
              "name": "symbol",
              "type": "string"
            },
            {
              "internalType": "uint8",
              "name": "decimals",
              "type": "uint8"
            }
          ],
          "internalType": "struct IZamaWrappersRegistry.Pair",
          "name": "",
          "type": "tuple"
        }
      ],
      "stateMutability": "view",
      "type": "function"
    },
    {
      "inputs": [
        {
          "internalType": "address",
          "name": "erc7984",
          "type": "address"
        }
      ],
      "name": "getPairByERC7984",
      "outputs": [
        {
          "components": [
            {
              "internalType": "address",
              "name": "erc20",
              "type": "address"
            },
            {
              "internalType": "address",
              "name": "erc7984",
              "type": "address"
            },
            {
              "internalType": "string",
              "name": "name",
              "type": "string"
            },
            {
              "internalType": "string",
              "name": "symbol",
              "type": "string"
            },
            {
              "internalType": "uint8",
              "name": "decimals",
              "type": "uint8"
            }
          ],
          "internalType": "struct IZamaWrappersRegistry.Pair",
          "name": "",
          "type": "tuple"
        }
      ],
      "stateMutability": "view",
      "type": "function"
    },
    {
      "inputs": [
        {
          "internalType": "address",
          "name": "token",
          "type": "address"
        }
      ],
      "name": "grantDecryptPermit",
      "outputs": [],
      "stateMutability": "nonpayable",
      "type": "function"
    },
    {
      "inputs": [],
      "name": "officialPairCount",
      "outputs": [
        {
          "internalType": "uint256",
          "name": "",
          "type": "uint256"
        }
      ],
      "stateMutability": "view",
      "type": "function"
    },
    {
      "inputs": [],
      "name": "officialRegistry",
      "outputs": [
        {
          "internalType": "contract IZamaWrappersRegistry",
          "name": "",
          "type": "address"
        }
      ],
      "stateMutability": "view",
      "type": "function"
    },
    {
      "inputs": [
        {
          "internalType": "uint256",
          "name": "pairId",
          "type": "uint256"
        },
        {
          "internalType": "externalEuint64",
          "name": "encAmount",
          "type": "bytes32"
        },
        {
          "internalType": "bytes",
          "name": "proof",
          "type": "bytes"
        }
      ],
      "name": "unwrap",
      "outputs": [],
      "stateMutability": "nonpayable",
      "type": "function"
    },
    {
      "inputs": [
        {
          "internalType": "uint256",
          "name": "pairId",
          "type": "uint256"
        },
        {
          "internalType": "externalEuint64",
          "name": "encAmount",
          "type": "bytes32"
        },
        {
          "internalType": "bytes",
          "name": "proof",
          "type": "bytes"
        }
      ],
      "name": "wrap",
      "outputs": [],
      "stateMutability": "nonpayable",
      "type": "function"
    }
  ],
  "bytecode": "0x60a060405234801561000f575f80fd5b5060405161126c38038061126c83398101604081905261002e91610333565b6100e2610039610184565b80517f9e7b61f58c47dc699ac88507c4f5bb9f121c03808c5676a8078fe583e464970080546001600160a01b03199081166001600160a01b039384161790915560208301517f9e7b61f58c47dc699ac88507c4f5bb9f121c03808c5676a8078fe583e46497018054831691841691909117905560408301517f9e7b61f58c47dc699ac88507c4f5bb9f121c03808c5676a8078fe583e46497028054909216921691909117905550565b60017f9b779b17422d0df92223018b32b4d1fa46e071723d6817e2486d003becc55f00556001600160a01b0381166101735760405162461bcd60e51b815260206004820152602a60248201527f416e696d615265676973747279526f757465723a207a65726f207265676973746044820152697279206164647265737360b01b606482015260840160405180910390fd5b6001600160a01b0316608052610360565b604080516060810182525f80825260208201819052918101919091524660010361021d575060408051606080820183525f8083526020808401829052928401528251908101835273ca2e8f1f656cd25c01f05d0b243ab1ecd4a8ffb6815273d82385dada1ae3e969447f20a3164f6213100e75918101919091527377627828a55156b04ac0dc0eb30467f1a552bb039181019190915290565b4662aa36a70361029c575060408051606080820183525f8083526020808401829052928401528251908101835273f0ffdc93b7e186bc2f8cb3daa75d86d1930a433d81527392c920834ec8941d2c77d188936e1f7a6f49c1279181019190915273be0e383937d564d7ff0bc3b46c51f0bf8d5c311a9181019190915290565b46617a690361031a575060408051606080820183525f808352602080840182905292840152825190810183527350157cffd6bbfa2dece204a89ec419c23ef5755d815273e3a9105a3a932253a70f126eb1e3b589c643dd249181019190915273901f8942346f7ab3a01f6d7613119bca447bb0309181019190915290565b6040516373cac13b60e01b815260040160405180910390fd5b5f60208284031215610343575f80fd5b81516001600160a01b0381168114610359575f80fd5b9392505050565b608051610ecb6103a15f395f818160b90152818161026301528181610526015281816105bf0152818161060c0152818161064601526106e40152610ecb5ff3fe608060405234801561000f575f80fd5b506004361061009b575f3560e01c8063968fcff211610063578063968fcff214610134578063a47b0fd414610154578063bdf391cc14610167578063cf1fd9e11461017a578063df17631714610182575f80fd5b80632a1494611461009f57806358f253e2146100b45780635e785468146100f85780637b56c2b21461010b5780638927b0301461011e575b5f80fd5b6100b26100ad366004610aa4565b610195565b005b6100db7f000000000000000000000000000000000000000000000000000000000000000081565b6040516001600160a01b0390911681526020015b60405180910390f35b6100b2610106366004610ac6565b610243565b6100b2610119366004610b3f565b6103e3565b6101266104f1565b6040519081526020016100ef565b610147610142366004610aa4565b6104ff565b6040516100ef9190610bb6565b610147610162366004610aa4565b610598565b610147610175366004610c28565b6105ee565b610126610643565b6100b2610190366004610ac6565b6106c4565b6040516370a0823160e01b81523360048201525f906001600160a01b038316906370a0823190602401602060405180830381865afa1580156101d9573d5f803e3d5ffd5b505050506040513d601f19601f820116820180604052508101906101fd9190610c3f565b90506102098133610827565b506040516001600160a01b0383169033907fdf2032786b8e616fd65c01af820e18139187eee9bc43037851862a9fc2b63ceb905f90a35050565b61024b61084a565b60405163172358f160e31b8152600481018590525f907f00000000000000000000000000000000000000000000000000000000000000006001600160a01b03169063b91ac788906024015f60405180830381865afa1580156102af573d5f803e3d5ffd5b505050506040513d5f823e601f3d908101601f191682016040526102d69190810190610d2d565b60208101519091506001600160a01b031661030c5760405162461bcd60e51b815260040161030390610def565b60405180910390fd5b80602001516001600160a01b031663dcd56a418585856040518463ffffffff1660e01b815260040161034093929190610e30565b5f604051808303815f87803b158015610357575f80fd5b505af1158015610369573d5f803e3d5ffd5b505050506020818101516040516001600160a01b039091168152869133917f3455767417ddbc4f7e336856113e210e6d6f73acb6f04a466322eaf6a79896d391015b60405180910390a3506103dd60017f9b779b17422d0df92223018b32b4d1fa46e071723d6817e2486d003becc55f0055565b50505050565b5f811180156103fc575069021e19e0c9bab24000008111155b6104525760405162461bcd60e51b815260206004820152602160248201527f416e696d615265676973747279526f757465723a20666175636574206c696d696044820152601d60fa1b6064820152608401610303565b6040516340c10f1960e01b8152336004820152602481018290526001600160a01b038316906340c10f19906044015f604051808303815f87803b158015610497575f80fd5b505af11580156104a9573d5f803e3d5ffd5b50506040518381526001600160a01b03851692503391507f8df9ef7404c42e7288b0a32e4eabb433f845a4bbdf35bec2b0aebf43ca498d0c9060200160405180910390a35050565b5f6104fa610878565b905090565b610507610a4c565b604051634b47e7f960e11b81526001600160a01b0383811660048301527f0000000000000000000000000000000000000000000000000000000000000000169063968fcff2906024015b5f60405180830381865afa15801561056b573d5f803e3d5ffd5b505050506040513d5f823e601f3d908101601f191682016040526105929190810190610d2d565b92915050565b6105a0610a4c565b60405163291ec3f560e21b81526001600160a01b0383811660048301527f0000000000000000000000000000000000000000000000000000000000000000169063a47b0fd490602401610551565b6105f6610a4c565b60405163172358f160e31b8152600481018390527f00000000000000000000000000000000000000000000000000000000000000006001600160a01b03169063b91ac78890602401610551565b5f7f00000000000000000000000000000000000000000000000000000000000000006001600160a01b031663173fd1db6040518163ffffffff1660e01b8152600401602060405180830381865afa1580156106a0573d5f803e3d5ffd5b505050506040513d601f19601f820116820180604052508101906104fa9190610c3f565b6106cc61084a565b60405163172358f160e31b8152600481018590525f907f00000000000000000000000000000000000000000000000000000000000000006001600160a01b03169063b91ac788906024015f60405180830381865afa158015610730573d5f803e3d5ffd5b505050506040513d5f823e601f3d908101601f191682016040526107579190810190610d2d565b60208101519091506001600160a01b03166107845760405162461bcd60e51b815260040161030390610def565b80602001516001600160a01b031663ebb475da8585856040518463ffffffff1660e01b81526004016107b893929190610e30565b5f604051808303815f87803b1580156107cf575f80fd5b505af11580156107e1573d5f803e3d5ffd5b505050506020818101516040516001600160a01b039091168152869133917f1dcb5a508170be4d49f81a2e679aea5a1a064f5e7c34d73cd8bc670305d74b1691016103ab565b5f82610839576108365f6108ac565b92505b61084383836108c2565b5090919050565b61085261094b565b60027f9b779b17422d0df92223018b32b4d1fa46e071723d6817e2486d003becc55f0055565b5f466001036108875750600190565b4662aa36a703610898575061271190565b46617a69036108a757505f1990565b505f90565b5f6105928267ffffffffffffffff16600561098f565b5f7f9e7b61f58c47dc699ac88507c4f5bb9f121c03808c5676a8078fe583e46497008054604051635ca4b5b160e11b8152600481018690526001600160a01b03858116602483015292935091169063b9496b62906044015f604051808303815f87803b158015610930575f80fd5b505af1158015610942573d5f803e3d5ffd5b50505050505050565b7f9b779b17422d0df92223018b32b4d1fa46e071723d6817e2486d003becc55f005460020361098d57604051633ee5aeb560e01b815260040160405180910390fd5b565b7f9e7b61f58c47dc699ac88507c4f5bb9f121c03808c5676a8078fe583e464970154604051639cd07acb60e01b81525f917f9e7b61f58c47dc699ac88507c4f5bb9f121c03808c5676a8078fe583e4649700916001600160a01b0390911690639cd07acb90610a049087908790600401610e65565b6020604051808303815f875af1158015610a20573d5f803e3d5ffd5b505050506040513d601f19601f82011682018060405250810190610a449190610c3f565b949350505050565b6040518060a001604052805f6001600160a01b031681526020015f6001600160a01b0316815260200160608152602001606081526020015f60ff1681525090565b6001600160a01b0381168114610aa1575f80fd5b50565b5f60208284031215610ab4575f80fd5b8135610abf81610a8d565b9392505050565b5f805f8060608587031215610ad9575f80fd5b8435935060208501359250604085013567ffffffffffffffff80821115610afe575f80fd5b818701915087601f830112610b11575f80fd5b813581811115610b1f575f80fd5b886020828501011115610b30575f80fd5b95989497505060200194505050565b5f8060408385031215610b50575f80fd5b8235610b5b81610a8d565b946020939093013593505050565b5f5b83811015610b83578181015183820152602001610b6b565b50505f910152565b5f8151808452610ba2816020860160208601610b69565b601f01601f19169290920160200192915050565b602081525f60018060a01b0380845116602084015280602085015116604084015250604083015160a06060840152610bf160c0840182610b8b565b90506060840151601f19848303016080850152610c0e8282610b8b565b91505060ff60808501511660a08401528091505092915050565b5f60208284031215610c38575f80fd5b5035919050565b5f60208284031215610c4f575f80fd5b5051919050565b634e487b7160e01b5f52604160045260245ffd5b60405160a0810167ffffffffffffffff81118282101715610c8d57610c8d610c56565b60405290565b5f82601f830112610ca2575f80fd5b815167ffffffffffffffff80821115610cbd57610cbd610c56565b604051601f8301601f19908116603f01168101908282118183101715610ce557610ce5610c56565b81604052838152866020858801011115610cfd575f80fd5b610d0e846020830160208901610b69565b9695505050505050565b805160ff81168114610d28575f80fd5b919050565b5f60208284031215610d3d575f80fd5b815167ffffffffffffffff80821115610d54575f80fd5b9083019060a08286031215610d67575f80fd5b610d6f610c6a565b8251610d7a81610a8d565b81526020830151610d8a81610a8d565b6020820152604083015182811115610da0575f80fd5b610dac87828601610c93565b604083015250606083015182811115610dc3575f80fd5b610dcf87828601610c93565b606083015250610de160808401610d18565b608082015295945050505050565b60208082526021908201527f416e696d615265676973747279526f757465723a20696e76616c6964207061696040820152603960f91b606082015260800190565b83815260406020820152816040820152818360608301375f818301606090810191909152601f909201601f1916010192915050565b8281526040810160548310610e8857634e487b7160e01b5f52602160045260245ffd5b826020830152939250505056fea2646970667358221220ca7a08ee2a0668e609f36fb7f855d32718e27ec4148d2c8b505b0a1529a6289564736f6c63430008180033",
  "linkReferences": {},
  "deployedLinkReferences": {}
}