{
  "_format": "hh-sol-artifact-1",
  "contractName": "AnimaDisperse",
  "sourceName": "src/AnimaDisperse.sol",
  "abi": [
    {
      "inputs": [],
      "name": "ReentrancyGuardReentrantCall",
      "type": "error"
    },
    {
      "inputs": [
        {
          "internalType": "bytes32",
          "name": "handle",
          "type": "bytes32"
        },
        {
          "internalType": "address",
          "name": "sender",
          "type": "address"
        }
      ],
      "name": "SenderNotAllowedToUseHandle",
      "type": "error"
    },
    {
      "inputs": [],
      "name": "ZamaProtocolUnsupported",
      "type": "error"
    },
    {
      "anonymous": false,
      "inputs": [
        {
          "indexed": true,
          "internalType": "uint256",
          "name": "id",
          "type": "uint256"
        },
        {
          "indexed": true,
          "internalType": "address",
          "name": "distributor",
          "type": "address"
        }
      ],
      "name": "Cancelled",
      "type": "event"
    },
    {
      "anonymous": false,
      "inputs": [
        {
          "indexed": true,
          "internalType": "uint256",
          "name": "id",
          "type": "uint256"
        },
        {
          "indexed": true,
          "internalType": "address",
          "name": "recipient",
          "type": "address"
        }
      ],
      "name": "Claimed",
      "type": "event"
    },
    {
      "anonymous": false,
      "inputs": [
        {
          "indexed": true,
          "internalType": "uint256",
          "name": "id",
          "type": "uint256"
        },
        {
          "indexed": true,
          "internalType": "address",
          "name": "recipient",
          "type": "address"
        }
      ],
      "name": "DecryptPermitGranted",
      "type": "event"
    },
    {
      "anonymous": false,
      "inputs": [
        {
          "indexed": true,
          "internalType": "uint256",
          "name": "id",
          "type": "uint256"
        },
        {
          "indexed": true,
          "internalType": "address",
          "name": "distributor",
          "type": "address"
        },
        {
          "indexed": true,
          "internalType": "address",
          "name": "token",
          "type": "address"
        },
        {
          "indexed": false,
          "internalType": "uint256",
          "name": "recipientCount",
          "type": "uint256"
        }
      ],
      "name": "DistributionCreated",
      "type": "event"
    },
    {
      "inputs": [
        {
          "internalType": "uint256",
          "name": "id",
          "type": "uint256"
        },
        {
          "internalType": "address[]",
          "name": "recipients",
          "type": "address[]"
        },
        {
          "internalType": "externalEuint64[]",
          "name": "encAmounts",
          "type": "bytes32[]"
        },
        {
          "internalType": "bytes[]",
          "name": "proofs",
          "type": "bytes[]"
        }
      ],
      "name": "cancel",
      "outputs": [],
      "stateMutability": "nonpayable",
      "type": "function"
    },
    {
      "inputs": [
        {
          "internalType": "uint256",
          "name": "id",
          "type": "uint256"
        },
        {
          "internalType": "externalEuint64",
          "name": "encAmount",
          "type": "bytes32"
        },
        {
          "internalType": "bytes",
          "name": "proof",
          "type": "bytes"
        }
      ],
      "name": "claim",
      "outputs": [],
      "stateMutability": "nonpayable",
      "type": "function"
    },
    {
      "inputs": [
        {
          "internalType": "uint256",
          "name": "",
          "type": "uint256"
        },
        {
          "internalType": "address",
          "name": "",
          "type": "address"
        }
      ],
      "name": "claimed",
      "outputs": [
        {
          "internalType": "bool",
          "name": "",
          "type": "bool"
        }
      ],
      "stateMutability": "view",
      "type": "function"
    },
    {
      "inputs": [],
      "name": "confidentialProtocolId",
      "outputs": [
        {
          "internalType": "uint256",
          "name": "",
          "type": "uint256"
        }
      ],
      "stateMutability": "view",
      "type": "function"
    },
    {
      "inputs": [
        {
          "internalType": "address",
          "name": "token",
          "type": "address"
        },
        {
          "internalType": "address[]",
          "name": "recipients",
          "type": "address[]"
        },
        {
          "internalType": "externalEuint64[]",
          "name": "encAmounts",
          "type": "bytes32[]"
        },
        {
          "internalType": "bytes[]",
          "name": "proofs",
          "type": "bytes[]"
        },
        {
          "components": [
            {
              "internalType": "uint64",
              "name": "cliff",
              "type": "uint64"
            },
            {
              "internalType": "uint64",
              "name": "linear",
              "type": "uint64"
            }
          ],
          "internalType": "struct AnimaDisperse.VestingSchedule",
          "name": "vesting",
          "type": "tuple"
        }
      ],
      "name": "createDistribution",
      "outputs": [
        {
          "internalType": "uint256",
          "name": "id",
          "type": "uint256"
        }
      ],
      "stateMutability": "nonpayable",
      "type": "function"
    },
    {
      "inputs": [],
      "name": "distributionCount",
      "outputs": [
        {
          "internalType": "uint256",
          "name": "",
          "type": "uint256"
        }
      ],
      "stateMutability": "view",
      "type": "function"
    },
    {
      "inputs": [
        {
          "internalType": "uint256",
          "name": "",
          "type": "uint256"
        }
      ],
      "name": "distributions",
      "outputs": [
        {
          "internalType": "address",
          "name": "token",
          "type": "address"
        },
        {
          "internalType": "address",
          "name": "distributor",
          "type": "address"
        },
        {
          "internalType": "uint256",
          "name": "createdAt",
          "type": "uint256"
        },
        {
          "internalType": "uint256",
          "name": "recipientCount",
          "type": "uint256"
        },
        {
          "internalType": "bool",
          "name": "active",
          "type": "bool"
        },
        {
          "components": [
            {
              "internalType": "uint64",
              "name": "cliff",
              "type": "uint64"
            },
            {
              "internalType": "uint64",
              "name": "linear",
              "type": "uint64"
            }
          ],
          "internalType": "struct AnimaDisperse.VestingSchedule",
          "name": "vesting",
          "type": "tuple"
        }
      ],
      "stateMutability": "view",
      "type": "function"
    },
    {
      "inputs": [
        {
          "internalType": "uint256",
          "name": "id",
          "type": "uint256"
        }
      ],
      "name": "getAllocation",
      "outputs": [
        {
          "internalType": "euint64",
          "name": "",
          "type": "bytes32"
        }
      ],
      "stateMutability": "view",
      "type": "function"
    },
    {
      "inputs": [
        {
          "internalType": "uint256",
          "name": "id",
          "type": "uint256"
        }
      ],
      "name": "getDistribution",
      "outputs": [
        {
          "internalType": "address",
          "name": "token",
          "type": "address"
        },
        {
          "internalType": "address",
          "name": "distributor",
          "type": "address"
        },
        {
          "internalType": "uint256",
          "name": "createdAt",
          "type": "uint256"
        },
        {
          "internalType": "uint256",
          "name": "recipientCount",
          "type": "uint256"
        },
        {
          "internalType": "bool",
          "name": "active",
          "type": "bool"
        },
        {
          "internalType": "uint64",
          "name": "vestingCliff",
          "type": "uint64"
        },
        {
          "internalType": "uint64",
          "name": "vestingLinear",
          "type": "uint64"
        }
      ],
      "stateMutability": "view",
      "type": "function"
    },
    {
      "inputs": [
        {
          "internalType": "uint256",
          "name": "id",
          "type": "uint256"
        }
      ],
      "name": "requestDecryptPermit",
      "outputs": [],
      "stateMutability": "nonpayable",
      "type": "function"
    }
  ],
  "bytecode": "0x608060405234801561000f575f80fd5b506100c461001b6100ed565b80517f9e7b61f58c47dc699ac88507c4f5bb9f121c03808c5676a8078fe583e464970080546001600160a01b03199081166001600160a01b039384161790915560208301517f9e7b61f58c47dc699ac88507c4f5bb9f121c03808c5676a8078fe583e46497018054831691841691909117905560408301517f9e7b61f58c47dc699ac88507c4f5bb9f121c03808c5676a8078fe583e46497028054909216921691909117905550565b60017f9b779b17422d0df92223018b32b4d1fa46e071723d6817e2486d003becc55f005561029c565b604080516060810182525f808252602082018190529181019190915246600103610186575060408051606080820183525f8083526020808401829052928401528251908101835273ca2e8f1f656cd25c01f05d0b243ab1ecd4a8ffb6815273d82385dada1ae3e969447f20a3164f6213100e75918101919091527377627828a55156b04ac0dc0eb30467f1a552bb039181019190915290565b4662aa36a703610205575060408051606080820183525f8083526020808401829052928401528251908101835273f0ffdc93b7e186bc2f8cb3daa75d86d1930a433d81527392c920834ec8941d2c77d188936e1f7a6f49c1279181019190915273be0e383937d564d7ff0bc3b46c51f0bf8d5c311a9181019190915290565b46617a6903610283575060408051606080820183525f808352602080840182905292840152825190810183527350157cffd6bbfa2dece204a89ec419c23ef5755d815273e3a9105a3a932253a70f126eb1e3b589c643dd249181019190915273be0e383937d564d7ff0bc3b46c51f0bf8d5c311a9181019190915290565b6040516373cac13b60e01b815260040160405180910390fd5b611b1480620002aa5f395ff3fe608060405234801561000f575f80fd5b506004361061009b575f3560e01c80635a5804b3116100635780635a5804b3146102925780635de778ed146102ca5780638127bcf2146102dd5780638927b030146102f0578063c65c3d95146102f8575f80fd5b8063120aa8771461009f578063183e40f1146100e15780633b345a87146100f657806342eec028146101af5780634487d3df146101c2575b5f80fd5b6100cc6100ad366004611580565b600360209081525f928352604080842090915290825290205460ff1681565b60405190151581526020015b60405180910390f35b6100f46100ef3660046115f1565b610300565b005b61016161010436600461168c565b5f9081526001602081905260409091208054918101546002820154600383015460048401546005909401546001600160a01b039586169695909316949193909260ff909116916001600160401b0380831692600160401b90041690565b604080516001600160a01b039889168152979096166020880152948601939093526060850191909152151560808401526001600160401b0390811660a08401521660c082015260e0016100d8565b6100f46101bd36600461168c565b610567565b61023b6101d036600461168c565b600160208181525f92835260409283902080549281015460028201546003830154600484015487518089019098526005909401546001600160401b038082168952600160401b90910416948701949094526001600160a01b03948516959190941693929160ff169086565b604080516001600160a01b039788168152969095166020808801919091529486019390935260608501919091521515608084015280516001600160401b0390811660a08501529101511660c082015260e0016100d8565b6102bc6102a036600461168c565b5f90815260026020908152604080832033845290915290205490565b6040519081526020016100d8565b6102bc6102d83660046116a3565b610653565b6100f46102eb36600461175f565b610a68565b6102bc610d82565b6102bc5f5481565b610308610d90565b5f878152600160208190526040909120908101546001600160a01b031633146103785760405162461bcd60e51b815260206004820152601e60248201527f416e696d6144697370657273653a206e6f74206469737472696275746f72000060448201526064015b60405180910390fd5b600481015460ff166103cc5760405162461bcd60e51b815260206004820152601f60248201527f416e696d6144697370657273653a20616c726561647920696e61637469766500604482015260640161036f565b60048101805460ff19169055855f5b81811015610519575f8989838181106103f6576103f66117d7565b905060200201602081019061040b91906117eb565b5f8c81526003602090815260408083206001600160a01b038516845290915290205490915060ff16610510575f6104b189898581811061044d5761044d6117d7565b90506020020135888886818110610466576104666117d7565b90506020028101906104789190611804565b8080601f0160208091040260200160405190810160405280939291908181526020018383808284375f92019190915250610dab92505050565b5f8d81526002602090815260408083206001600160a01b03871684529091529020549091506104e09082610e1a565b5f8d81526002602090815260408083206001600160a01b0387168452909152902081905561050d90610e48565b50505b506001016103db565b5060405133908a907f26deca31ff8139a06c52453ce8985d34f7648a6d9af1d283c4063d052c355a0f905f90a3505061055e60015f80516020611abf83398151915255565b50505050505050565b5f8181526001602052604090206004015460ff166105975760405162461bcd60e51b815260040161036f90611846565b5f81815260036020908152604080832033845290915290205460ff16156106005760405162461bcd60e51b815260206004820152601e60248201527f416e696d6144697370657273653a20616c726561647920636c61696d65640000604482015260640161036f565b5f8181526002602090815260408083203380855292529091205461062391610e68565b50604051339082907f2a52789689a87508854bf04564fce605a7457056ea5dbd82ae48f2d1bacfd1de905f90a350565b5f61065c610d90565b86806106aa5760405162461bcd60e51b815260206004820152601f60248201527f416e696d6144697370657273653a20656d70747920726563697069656e747300604482015260640161036f565b8581146107085760405162461bcd60e51b815260206004820152602660248201527f416e696d6144697370657273653a206c656e677468206d69736d6174636820616044820152656d6f756e747360d01b606482015260840161036f565b8381146107655760405162461bcd60e51b815260206004820152602560248201527f416e696d6144697370657273653a206c656e677468206d69736d617463682070604482015264726f6f667360d81b606482015260840161036f565b6001600160a01b038a166107bb5760405162461bcd60e51b815260206004820152601960248201527f416e696d6144697370657273653a207a65726f20746f6b656e00000000000000604482015260640161036f565b5f805490806107c98361189e565b9190505591506040518060c001604052808b6001600160a01b03168152602001336001600160a01b031681526020014281526020018281526020016001151581526020018480360381019061081e91906118cc565b90525f838152600160208181526040808420855181546001600160a01b039182166001600160a01b031991821617835587850151958301805496909216951694909417909355840151600283015560608401516003830155608084015160048301805491151560ff1990921691909117905560a09093015180516005909201805491909401516001600160401b03908116600160401b026fffffffffffffffffffffffffffffffff19909216921691909117179091555b818110156109f6575f8a8a838181106108f0576108f06117d7565b905060200201602081019061090591906117eb565b90506001600160a01b03811661095d5760405162461bcd60e51b815260206004820152601d60248201527f416e696d6144697370657273653a207a65726f20726563697069656e74000000604482015260640161036f565b5f61098c8a8a85818110610973576109736117d7565b90506020020135898986818110610466576104666117d7565b5f8681526002602090815260408083206001600160a01b03871684529091529020549091506109bb9082610e8b565b5f8681526002602090815260408083206001600160a01b038716845290915290208190556109e890610e48565b5082600101925050506108d5565b50896001600160a01b0316336001600160a01b0316837f50ec86c09f319e8770db862f3e1903d6a8d272c3356e9a8f43dfcb9f56ac0eb084604051610a3d91815260200190565b60405180910390a450610a5c60015f80516020611abf83398151915255565b98975050505050505050565b610a70610d90565b5f848152600160205260409020600481015460ff16610aa15760405162461bcd60e51b815260040161036f90611846565b5f85815260036020908152604080832033845290915290205460ff1615610b0a5760405162461bcd60e51b815260206004820152601e60248201527f416e696d6144697370657273653a20616c726561647920636c61696d65640000604482015260640161036f565b60058101546001600160401b031615610b895760058101546002820154610b3a916001600160401b031690611930565b421015610b895760405162461bcd60e51b815260206004820181905260248201527f416e696d6144697370657273653a20636c696666206e6f742072656163686564604482015260640161036f565b5f610bc98585858080601f0160208091040260200160405190810160405280939291908181526020018383808284375f92019190915250610dab92505050565b5f878152600260209081526040808320338452909152812054600585015492935091600160401b90046001600160401b031615610ca757600584015460028501545f91610c21916001600160401b0390911690611930565b610c2b9042611943565b6005860154909150600160401b90046001600160401b03168110610c5157829150610ca1565b60058501545f90600160401b90046001600160401b0316610c758362100000611956565b610c7f919061196d565b9050610c9d610c9685610c9184610eb9565b610ece565b6014610efc565b9250505b50610caa565b50805b5f610cb58483610f1d565b9050610ccb81610cc58587610e1a565b85610f4b565b5f8a81526002602090815260408083203384529091529020819055610cef90610e48565b505f89815260026020908152604080832033808552925290912054610d1391610e68565b505f898152600360209081526040808320338085529252808320805460ff191660011790555190918b917f6aa3eac93d079e5e100b1029be716caa33586c96aa4baac390669fb5c2a212129190a35050505050610d7c60015f80516020611abf83398151915255565b50505050565b5f610d8b610f94565b905090565b610d98610fc8565b60025f80516020611abf83398151915255565b5f81515f14610dc757610dc083836005610ff9565b9050610e14565b825f819003610de157610dd95f610eb9565b915050610e14565b610deb81336110f3565b610e1157604051630276b5d960e01b81526004810182905233602482015260440161036f565b90505b92915050565b5f82610e2c57610e295f610eb9565b92505b81610e3d57610e3a5f610eb9565b91505b610e1183835f61117f565b5f81610e5a57610e575f610eb9565b91505b610e64823061122c565b5090565b5f82610e7a57610e775f610eb9565b92505b610e84838361122c565b5090919050565b5f82610e9d57610e9a5f610eb9565b92505b81610eae57610eab5f610eb9565b91505b610e1183835f611299565b5f610e14826001600160401b031660056112fc565b5f82610ee057610edd5f610eb9565b92505b81610ef157610eee5f610eb9565b91505b610e1183835f61138b565b5f82610f0e57610f0b5f610eb9565b92505b610e118360ff841660016113ee565b5f82610f2f57610f2c5f610eb9565b92505b81610f4057610f3d5f610eb9565b91505b610e1183835f611451565b5f83610f5d57610f5a5f6114b4565b93505b82610f6e57610f6b5f610eb9565b92505b81610f7f57610f7c5f610eb9565b91505b610f8a8484846114cf565b90505b9392505050565b5f46600103610fa35750600190565b4662aa36a703610fb4575061271190565b46617a6903610fc357505f1990565b505f90565b5f80516020611abf83398151915254600203610ff757604051633ee5aeb560e01b815260040160405180910390fd5b565b5f80516020611a7f8339815191525460405163045fc19560e11b81525f915f80516020611a9f833981519152916001600160a01b03909116906308bf832a9061104c9088903390899089906004016119ac565b6020604051808303815f875af1158015611068573d5f803e3d5ffd5b505050506040513d601f19601f8201168201806040525081019061108c9190611a14565b8154604051630f8e573b60e21b8152600481018390523360248201529193506001600160a01b031690633e395cec906044015f604051808303815f87803b1580156110d5575f80fd5b505af11580156110e7573d5f803e3d5ffd5b50505050509392505050565b5f805f80516020611a9f83398151915280546040516382027b6d60e01b8152600481018790526001600160a01b0386811660248301529293509116906382027b6d90604401602060405180830381865afa158015611153573d5f803e3d5ffd5b505050506040513d601f19601f820116820180604052508101906111779190611a2b565b949350505050565b5f8082156111925750600160f81b611195565b505f5b5f80516020611a7f833981519152546040516303056db360e31b81525f80516020611a9f833981519152916001600160a01b03169063182b6d98906111e290899089908790600401611a4a565b6020604051808303815f875af11580156111fe573d5f803e3d5ffd5b505050506040513d601f19601f820116820180604052508101906112229190611a14565b9695505050505050565b5f5f80516020611a9f8339815191528054604051635ca4b5b160e11b8152600481018690526001600160a01b03858116602483015292935091169063b9496b62906044015f604051808303815f87803b158015611287575f80fd5b505af115801561055e573d5f803e3d5ffd5b5f8082156112ac5750600160f81b6112af565b505f5b5f80516020611a7f8339815191525460405163022f65e760e31b81525f80516020611a9f833981519152916001600160a01b03169063117b2f38906111e290899089908790600401611a4a565b5f80516020611a7f83398151915254604051639cd07acb60e01b81525f915f80516020611a9f833981519152916001600160a01b0390911690639cd07acb9061134b9087908790600401611a6a565b6020604051808303815f875af1158015611367573d5f803e3d5ffd5b505050506040513d601f19601f820116820180604052508101906111779190611a14565b5f80821561139e5750600160f81b6113a1565b505f5b5f80516020611a7f83398151915254604051630afe14ad60e31b81525f80516020611a9f833981519152916001600160a01b0316906357f0a568906111e290899089908790600401611a4a565b5f8082156114015750600160f81b611404565b505f5b5f80516020611a7f833981519152546040516348fcc7ff60e11b81525f80516020611a9f833981519152916001600160a01b0316906391f98ffe906111e290899089908790600401611a4a565b5f8082156114645750600160f81b611467565b505f5b5f80516020611a7f83398151915254604051631d44e90160e21b81525f80516020611a9f833981519152916001600160a01b031690637513a404906111e290899089908790600401611a4a565b5f610e14826114c3575f6114c6565b60015b60ff165f6112fc565b5f805f80516020611a9f8339815191526001810154604051637702dcff60e01b81526004810188905260248101879052604481018690529192506001600160a01b031690637702dcff906064016020604051808303815f875af1158015611538573d5f803e3d5ffd5b505050506040513d601f19601f8201168201806040525081019061155c9190611a14565b95945050505050565b80356001600160a01b038116811461157b575f80fd5b919050565b5f8060408385031215611591575f80fd5b823591506115a160208401611565565b90509250929050565b5f8083601f8401126115ba575f80fd5b5081356001600160401b038111156115d0575f80fd5b6020830191508360208260051b85010111156115ea575f80fd5b9250929050565b5f805f805f805f6080888a031215611607575f80fd5b8735965060208801356001600160401b0380821115611624575f80fd5b6116308b838c016115aa565b909850965060408a0135915080821115611648575f80fd5b6116548b838c016115aa565b909650945060608a013591508082111561166c575f80fd5b506116798a828b016115aa565b989b979a50959850939692959293505050565b5f6020828403121561169c575f80fd5b5035919050565b5f805f805f805f80888a0360c08112156116bb575f80fd5b6116c48a611565565b985060208a01356001600160401b03808211156116df575f80fd5b6116eb8d838e016115aa565b909a50985060408c0135915080821115611703575f80fd5b61170f8d838e016115aa565b909850965060608c0135915080821115611727575f80fd5b506117348c828d016115aa565b9095509350506040607f198201121561174b575f80fd5b506080890190509295985092959890939650565b5f805f8060608587031215611772575f80fd5b843593506020850135925060408501356001600160401b0380821115611796575f80fd5b818701915087601f8301126117a9575f80fd5b8135818111156117b7575f80fd5b8860208285010111156117c8575f80fd5b95989497505060200194505050565b634e487b7160e01b5f52603260045260245ffd5b5f602082840312156117fb575f80fd5b610e1182611565565b5f808335601e19843603018112611819575f80fd5b8301803591506001600160401b03821115611832575f80fd5b6020019150368190038213156115ea575f80fd5b60208082526024908201527f416e696d6144697370657273653a20696e6163746976652064697374726962756040820152633a34b7b760e11b606082015260800190565b634e487b7160e01b5f52601160045260245ffd5b5f600182016118af576118af61188a565b5060010190565b80356001600160401b038116811461157b575f80fd5b5f604082840312156118dc575f80fd5b604051604081018181106001600160401b038211171561190a57634e487b7160e01b5f52604160045260245ffd5b604052611916836118b6565b8152611924602084016118b6565b60208201529392505050565b80820180821115610e1457610e1461188a565b81810381811115610e1457610e1461188a565b8082028115828204841417610e1457610e1461188a565b5f8261198757634e487b7160e01b5f52601260045260245ffd5b500490565b605481106119a857634e487b7160e01b5f52602160045260245ffd5b9052565b8481525f602060018060a01b03861660208401526080604084015284518060808501525f5b818110156119ed5786810183015185820160a0015282016119d1565b505f60a0828601015260a0601f19601f8301168501019250505061155c606083018461198c565b5f60208284031215611a24575f80fd5b5051919050565b5f60208284031215611a3b575f80fd5b81518015158114610f8d575f80fd5b92835260208301919091526001600160f81b031916604082015260600190565b82815260408101610f8d602083018461198c56fe9e7b61f58c47dc699ac88507c4f5bb9f121c03808c5676a8078fe583e46497019e7b61f58c47dc699ac88507c4f5bb9f121c03808c5676a8078fe583e46497009b779b17422d0df92223018b32b4d1fa46e071723d6817e2486d003becc55f00a2646970667358221220999c5ccab4ae6b51e86ced5deeed9642122fd1fc9e69cc1a95bab6d031caa8e564736f6c63430008180033",
  "linkReferences": {},
  "deployedLinkReferences": {}
}