{
  "_format": "hh-sol-artifact-1",
  "contractName": "AnimaDisperse",
  "sourceName": "src/AnimaDisperse.sol",
  "abi": [
    {
      "inputs": [],
      "name": "ReentrancyGuardReentrantCall",
      "type": "error"
    },
    {
      "inputs": [
        {
          "internalType": "bytes32",
          "name": "handle",
          "type": "bytes32"
        },
        {
          "internalType": "address",
          "name": "sender",
          "type": "address"
        }
      ],
      "name": "SenderNotAllowedToUseHandle",
      "type": "error"
    },
    {
      "inputs": [],
      "name": "ZamaProtocolUnsupported",
      "type": "error"
    },
    {
      "anonymous": false,
      "inputs": [
        {
          "indexed": true,
          "internalType": "uint256",
          "name": "id",
          "type": "uint256"
        },
        {
          "indexed": true,
          "internalType": "address",
          "name": "distributor",
          "type": "address"
        }
      ],
      "name": "Cancelled",
      "type": "event"
    },
    {
      "anonymous": false,
      "inputs": [
        {
          "indexed": true,
          "internalType": "uint256",
          "name": "id",
          "type": "uint256"
        },
        {
          "indexed": true,
          "internalType": "address",
          "name": "recipient",
          "type": "address"
        }
      ],
      "name": "Claimed",
      "type": "event"
    },
    {
      "anonymous": false,
      "inputs": [
        {
          "indexed": true,
          "internalType": "uint256",
          "name": "id",
          "type": "uint256"
        },
        {
          "indexed": true,
          "internalType": "address",
          "name": "recipient",
          "type": "address"
        }
      ],
      "name": "DecryptPermitGranted",
      "type": "event"
    },
    {
      "anonymous": false,
      "inputs": [
        {
          "indexed": true,
          "internalType": "uint256",
          "name": "id",
          "type": "uint256"
        },
        {
          "indexed": true,
          "internalType": "address",
          "name": "distributor",
          "type": "address"
        },
        {
          "indexed": true,
          "internalType": "address",
          "name": "token",
          "type": "address"
        },
        {
          "indexed": false,
          "internalType": "uint256",
          "name": "recipientCount",
          "type": "uint256"
        }
      ],
      "name": "DistributionCreated",
      "type": "event"
    },
    {
      "inputs": [
        {
          "internalType": "uint256",
          "name": "id",
          "type": "uint256"
        },
        {
          "internalType": "address[]",
          "name": "recipients",
          "type": "address[]"
        },
        {
          "internalType": "externalEuint64[]",
          "name": "encAmounts",
          "type": "bytes32[]"
        },
        {
          "internalType": "bytes[]",
          "name": "proofs",
          "type": "bytes[]"
        }
      ],
      "name": "cancel",
      "outputs": [],
      "stateMutability": "nonpayable",
      "type": "function"
    },
    {
      "inputs": [
        {
          "internalType": "uint256",
          "name": "id",
          "type": "uint256"
        },
        {
          "internalType": "externalEuint64",
          "name": "encAmount",
          "type": "bytes32"
        },
        {
          "internalType": "bytes",
          "name": "proof",
          "type": "bytes"
        }
      ],
      "name": "claim",
      "outputs": [],
      "stateMutability": "nonpayable",
      "type": "function"
    },
    {
      "inputs": [
        {
          "internalType": "uint256",
          "name": "",
          "type": "uint256"
        },
        {
          "internalType": "address",
          "name": "",
          "type": "address"
        }
      ],
      "name": "claimed",
      "outputs": [
        {
          "internalType": "bool",
          "name": "",
          "type": "bool"
        }
      ],
      "stateMutability": "view",
      "type": "function"
    },
    {
      "inputs": [],
      "name": "confidentialProtocolId",
      "outputs": [
        {
          "internalType": "uint256",
          "name": "",
          "type": "uint256"
        }
      ],
      "stateMutability": "view",
      "type": "function"
    },
    {
      "inputs": [
        {
          "internalType": "address",
          "name": "token",
          "type": "address"
        },
        {
          "internalType": "address[]",
          "name": "recipients",
          "type": "address[]"
        },
        {
          "internalType": "externalEuint64[]",
          "name": "encAmounts",
          "type": "bytes32[]"
        },
        {
          "internalType": "bytes[]",
          "name": "proofs",
          "type": "bytes[]"
        },
        {
          "components": [
            {
              "internalType": "uint64",
              "name": "cliff",
              "type": "uint64"
            },
            {
              "internalType": "uint64",
              "name": "linear",
              "type": "uint64"
            }
          ],
          "internalType": "struct AnimaDisperse.VestingSchedule",
          "name": "vesting",
          "type": "tuple"
        }
      ],
      "name": "createDistribution",
      "outputs": [
        {
          "internalType": "uint256",
          "name": "id",
          "type": "uint256"
        }
      ],
      "stateMutability": "nonpayable",
      "type": "function"
    },
    {
      "inputs": [],
      "name": "distributionCount",
      "outputs": [
        {
          "internalType": "uint256",
          "name": "",
          "type": "uint256"
        }
      ],
      "stateMutability": "view",
      "type": "function"
    },
    {
      "inputs": [
        {
          "internalType": "uint256",
          "name": "",
          "type": "uint256"
        }
      ],
      "name": "distributions",
      "outputs": [
        {
          "internalType": "address",
          "name": "token",
          "type": "address"
        },
        {
          "internalType": "address",
          "name": "distributor",
          "type": "address"
        },
        {
          "internalType": "uint256",
          "name": "createdAt",
          "type": "uint256"
        },
        {
          "internalType": "uint256",
          "name": "recipientCount",
          "type": "uint256"
        },
        {
          "internalType": "bool",
          "name": "active",
          "type": "bool"
        },
        {
          "components": [
            {
              "internalType": "uint64",
              "name": "cliff",
              "type": "uint64"
            },
            {
              "internalType": "uint64",
              "name": "linear",
              "type": "uint64"
            }
          ],
          "internalType": "struct AnimaDisperse.VestingSchedule",
          "name": "vesting",
          "type": "tuple"
        }
      ],
      "stateMutability": "view",
      "type": "function"
    },
    {
      "inputs": [
        {
          "internalType": "uint256",
          "name": "id",
          "type": "uint256"
        }
      ],
      "name": "getAllocation",
      "outputs": [
        {
          "internalType": "euint64",
          "name": "",
          "type": "bytes32"
        }
      ],
      "stateMutability": "view",
      "type": "function"
    },
    {
      "inputs": [
        {
          "internalType": "uint256",
          "name": "id",
          "type": "uint256"
        }
      ],
      "name": "getDistribution",
      "outputs": [
        {
          "internalType": "address",
          "name": "token",
          "type": "address"
        },
        {
          "internalType": "address",
          "name": "distributor",
          "type": "address"
        },
        {
          "internalType": "uint256",
          "name": "createdAt",
          "type": "uint256"
        },
        {
          "internalType": "uint256",
          "name": "recipientCount",
          "type": "uint256"
        },
        {
          "internalType": "bool",
          "name": "active",
          "type": "bool"
        },
        {
          "internalType": "uint64",
          "name": "vestingCliff",
          "type": "uint64"
        },
        {
          "internalType": "uint64",
          "name": "vestingLinear",
          "type": "uint64"
        }
      ],
      "stateMutability": "view",
      "type": "function"
    },
    {
      "inputs": [
        {
          "internalType": "uint256",
          "name": "id",
          "type": "uint256"
        }
      ],
      "name": "requestDecryptPermit",
      "outputs": [],
      "stateMutability": "nonpayable",
      "type": "function"
    }
  ],
  "bytecode": "0x608060405234801562000010575f80fd5b50620000c86200001f620000f2565b80517f9e7b61f58c47dc699ac88507c4f5bb9f121c03808c5676a8078fe583e464970080546001600160a01b03199081166001600160a01b039384161790915560208301517f9e7b61f58c47dc699ac88507c4f5bb9f121c03808c5676a8078fe583e46497018054831691841691909117905560408301517f9e7b61f58c47dc699ac88507c4f5bb9f121c03808c5676a8078fe583e46497028054909216921691909117905550565b60017f9b779b17422d0df92223018b32b4d1fa46e071723d6817e2486d003becc55f0055620002a4565b604080516060810182525f8082526020820181905291810191909152466001036200018c575060408051606080820183525f8083526020808401829052928401528251908101835273ca2e8f1f656cd25c01f05d0b243ab1ecd4a8ffb6815273d82385dada1ae3e969447f20a3164f6213100e75918101919091527377627828a55156b04ac0dc0eb30467f1a552bb039181019190915290565b4662aa36a7036200020c575060408051606080820183525f8083526020808401829052928401528251908101835273f0ffdc93b7e186bc2f8cb3daa75d86d1930a433d81527392c920834ec8941d2c77d188936e1f7a6f49c1279181019190915273be0e383937d564d7ff0bc3b46c51f0bf8d5c311a9181019190915290565b46617a69036200028b575060408051606080820183525f808352602080840182905292840152825190810183527350157cffd6bbfa2dece204a89ec419c23ef5755d815273e3a9105a3a932253a70f126eb1e3b589c643dd249181019190915273be0e383937d564d7ff0bc3b46c51f0bf8d5c311a9181019190915290565b6040516373cac13b60e01b815260040160405180910390fd5b611d6580620002b25f395ff3fe608060405234801561000f575f80fd5b506004361061009b575f3560e01c80635a5804b3116100635780635a5804b3146102925780635de778ed146102ca5780638127bcf2146102dd5780638927b030146102f0578063c65c3d95146102f8575f80fd5b8063120aa8771461009f578063183e40f1146100e15780633b345a87146100f657806342eec028146101af5780634487d3df146101c2575b5f80fd5b6100cc6100ad366004611744565b600360209081525f928352604080842090915290825290205460ff1681565b60405190151581526020015b60405180910390f35b6100f46100ef3660046117b5565b610300565b005b610161610104366004611850565b5f9081526001602081905260409091208054918101546002820154600383015460048401546005909401546001600160a01b039586169695909316949193909260ff909116916001600160401b0380831692600160401b90041690565b604080516001600160a01b039889168152979096166020880152948601939093526060850191909152151560808401526001600160401b0390811660a08401521660c082015260e0016100d8565b6100f46101bd366004611850565b610615565b61023b6101d0366004611850565b600160208181525f92835260409283902080549281015460028201546003830154600484015487518089019098526005909401546001600160401b038082168952600160401b90910416948701949094526001600160a01b03948516959190941693929160ff169086565b604080516001600160a01b039788168152969095166020808801919091529486019390935260608501919091521515608084015280516001600160401b0390811660a08501529101511660c082015260e0016100d8565b6102bc6102a0366004611850565b5f90815260026020908152604080832033845290915290205490565b6040519081526020016100d8565b6102bc6102d8366004611867565b610701565b6100f46102eb366004611923565b610bd8565b6102bc610f46565b6102bc5f5481565b610308610f54565b5f878152600160208190526040909120908101546001600160a01b031633146103785760405162461bcd60e51b815260206004820152601e60248201527f416e696d6144697370657273653a206e6f74206469737472696275746f72000060448201526064015b60405180910390fd5b600481015460ff166103cc5760405162461bcd60e51b815260206004820152601f60248201527f416e696d6144697370657273653a20616c726561647920696e61637469766500604482015260640161036f565b60048101805460ff19169055855f5b818110156105c7575f8989838181106103f6576103f661199b565b905060200201602081019061040b91906119af565b5f8c81526003602090815260408083206001600160a01b038516845290915290205490915060ff166105be575f6104b189898581811061044d5761044d61199b565b905060200201358888868181106104665761046661199b565b905060200281019061047891906119c8565b8080601f0160208091040260200160405190810160405280939291908181526020018383808284375f92019190915250610f6f92505050565b5f8d81526002602090815260408083206001600160a01b03871684529091529020549091506104e09082610fde565b5f8d81526002602090815260408083206001600160a01b0387168452909152902081905561050d9061100c565b5084546001600160a01b0316637b7e0a5a338b8b878181106105315761053161199b565b905060200201358a8a8881811061054a5761054a61199b565b905060200281019061055c91906119c8565b6040518563ffffffff1660e01b815260040161057b9493929190611a32565b6020604051808303815f875af1158015610597573d5f803e3d5ffd5b505050506040513d601f19601f820116820180604052508101906105bb9190611a59565b50505b506001016103db565b5060405133908a907f26deca31ff8139a06c52453ce8985d34f7648a6d9af1d283c4063d052c355a0f905f90a3505061060c60015f80516020611d1083398151915255565b50505050505050565b5f8181526001602052604090206004015460ff166106455760405162461bcd60e51b815260040161036f90611a78565b5f81815260036020908152604080832033845290915290205460ff16156106ae5760405162461bcd60e51b815260206004820152601e60248201527f416e696d6144697370657273653a20616c726561647920636c61696d65640000604482015260640161036f565b5f818152600260209081526040808320338085529252909120546106d19161102c565b50604051339082907f2a52789689a87508854bf04564fce605a7457056ea5dbd82ae48f2d1bacfd1de905f90a350565b5f61070a610f54565b86806107585760405162461bcd60e51b815260206004820152601f60248201527f416e696d6144697370657273653a20656d70747920726563697069656e747300604482015260640161036f565b8581146107b65760405162461bcd60e51b815260206004820152602660248201527f416e696d6144697370657273653a206c656e677468206d69736d6174636820616044820152656d6f756e747360d01b606482015260840161036f565b8381146108135760405162461bcd60e51b815260206004820152602560248201527f416e696d6144697370657273653a206c656e677468206d69736d617463682070604482015264726f6f667360d81b606482015260840161036f565b6001600160a01b038a166108695760405162461bcd60e51b815260206004820152601960248201527f416e696d6144697370657273653a207a65726f20746f6b656e00000000000000604482015260640161036f565b5f8054908061087783611ad0565b9190505591506040518060c001604052808b6001600160a01b03168152602001336001600160a01b03168152602001428152602001828152602001600115158152602001848036038101906108cc9190611afe565b90525f838152600160208181526040808420855181546001600160a01b039182166001600160a01b031991821617835587850151958301805496909216951694909417909355840151600283015560608401516003830155608084015160048301805491151560ff1990921691909117905560a09093015180516005909201805491909401516001600160401b03908116600160401b026fffffffffffffffffffffffffffffffff19909216921691909117179091555b81811015610aa4575f8a8a8381811061099e5761099e61199b565b90506020020160208101906109b391906119af565b90506001600160a01b038116610a0b5760405162461bcd60e51b815260206004820152601d60248201527f416e696d6144697370657273653a207a65726f20726563697069656e74000000604482015260640161036f565b5f610a3a8a8a85818110610a2157610a2161199b565b905060200201358989868181106104665761046661199b565b5f8681526002602090815260408083206001600160a01b0387168452909152902054909150610a69908261104f565b5f8681526002602090815260408083206001600160a01b03871684529091529020819055610a969061100c565b508260010192505050610983565b505f5b81811015610b66578a6001600160a01b0316639a09435233308b8b86818110610ad257610ad261199b565b905060200201358a8a87818110610aeb57610aeb61199b565b9050602002810190610afd91906119c8565b6040518663ffffffff1660e01b8152600401610b1d959493929190611b62565b6020604051808303815f875af1158015610b39573d5f803e3d5ffd5b505050506040513d601f19601f82011682018060405250810190610b5d9190611a59565b50600101610aa7565b50896001600160a01b0316336001600160a01b0316837f50ec86c09f319e8770db862f3e1903d6a8d272c3356e9a8f43dfcb9f56ac0eb084604051610bad91815260200190565b60405180910390a450610bcc60015f80516020611d1083398151915255565b98975050505050505050565b610be0610f54565b5f848152600160205260409020600481015460ff16610c115760405162461bcd60e51b815260040161036f90611a78565b5f85815260036020908152604080832033845290915290205460ff1615610c7a5760405162461bcd60e51b815260206004820152601e60248201527f416e696d6144697370657273653a20616c726561647920636c61696d65640000604482015260640161036f565b60058101546001600160401b031615610cf95760058101546002820154610caa916001600160401b031690611ba0565b421015610cf95760405162461bcd60e51b815260206004820181905260248201527f416e696d6144697370657273653a20636c696666206e6f742072656163686564604482015260640161036f565b5f610d398585858080601f0160208091040260200160405190810160405280939291908181526020018383808284375f92019190915250610f6f92505050565b5f878152600260209081526040808320338452909152812054600585015492935091600160401b90046001600160401b031615610e1757600584015460028501545f91610d91916001600160401b0390911690611ba0565b610d9b9042611bb3565b6005860154909150600160401b90046001600160401b03168110610dc157829150610e11565b60058501545f90600160401b90046001600160401b0316610de58362100000611bc6565b610def9190611bdd565b9050610e0d610e0685610e018461107d565b611092565b60146110c0565b9250505b50610e1a565b50805b5f610e2584836110e1565b9050610e3b81610e358587610fde565b8561110f565b5f8a81526002602090815260408083203384529091529020819055610e5f9061100c565b505f89815260036020908152604080832033808552925291829020805460ff1916600117905586549151633dbf052d60e11b81526001600160a01b039290921691637b7e0a5a91610eb8918c908c908c90600401611a32565b6020604051808303815f875af1158015610ed4573d5f803e3d5ffd5b505050506040513d601f19601f82011682018060405250810190610ef89190611a59565b5060405133908a907f6aa3eac93d079e5e100b1029be716caa33586c96aa4baac390669fb5c2a21212905f90a35050505050610f4060015f80516020611d1083398151915255565b50505050565b5f610f4f611158565b905090565b610f5c61118c565b60025f80516020611d1083398151915255565b5f81515f14610f8b57610f84838360056111bd565b9050610fd8565b825f819003610fa557610f9d5f61107d565b915050610fd8565b610faf81336112b7565b610fd557604051630276b5d960e01b81526004810182905233602482015260440161036f565b90505b92915050565b5f82610ff057610fed5f61107d565b92505b8161100157610ffe5f61107d565b91505b610fd583835f611343565b5f8161101e5761101b5f61107d565b91505b61102882306113f0565b5090565b5f8261103e5761103b5f61107d565b92505b61104883836113f0565b5090919050565b5f826110615761105e5f61107d565b92505b816110725761106f5f61107d565b91505b610fd583835f61145d565b5f610fd8826001600160401b031660056114c0565b5f826110a4576110a15f61107d565b92505b816110b5576110b25f61107d565b91505b610fd583835f61154f565b5f826110d2576110cf5f61107d565b92505b610fd58360ff841660016115b2565b5f826110f3576110f05f61107d565b92505b81611104576111015f61107d565b91505b610fd583835f611615565b5f836111215761111e5f611678565b93505b826111325761112f5f61107d565b92505b81611143576111405f61107d565b91505b61114e848484611693565b90505b9392505050565b5f466001036111675750600190565b4662aa36a703611178575061271190565b46617a690361118757505f1990565b505f90565b5f80516020611d10833981519152546002036111bb57604051633ee5aeb560e01b815260040160405180910390fd5b565b5f80516020611cd08339815191525460405163045fc19560e11b81525f915f80516020611cf0833981519152916001600160a01b03909116906308bf832a90611210908890339089908990600401611c1c565b6020604051808303815f875af115801561122c573d5f803e3d5ffd5b505050506040513d601f19601f820116820180604052508101906112509190611c84565b8154604051630f8e573b60e21b8152600481018390523360248201529193506001600160a01b031690633e395cec906044015f604051808303815f87803b158015611299575f80fd5b505af11580156112ab573d5f803e3d5ffd5b50505050509392505050565b5f805f80516020611cf083398151915280546040516382027b6d60e01b8152600481018790526001600160a01b0386811660248301529293509116906382027b6d90604401602060405180830381865afa158015611317573d5f803e3d5ffd5b505050506040513d601f19601f8201168201806040525081019061133b9190611a59565b949350505050565b5f8082156113565750600160f81b611359565b505f5b5f80516020611cd0833981519152546040516303056db360e31b81525f80516020611cf0833981519152916001600160a01b03169063182b6d98906113a690899089908790600401611c9b565b6020604051808303815f875af11580156113c2573d5f803e3d5ffd5b505050506040513d601f19601f820116820180604052508101906113e69190611c84565b9695505050505050565b5f5f80516020611cf08339815191528054604051635ca4b5b160e11b8152600481018690526001600160a01b03858116602483015292935091169063b9496b62906044015f604051808303815f87803b15801561144b575f80fd5b505af115801561060c573d5f803e3d5ffd5b5f8082156114705750600160f81b611473565b505f5b5f80516020611cd08339815191525460405163022f65e760e31b81525f80516020611cf0833981519152916001600160a01b03169063117b2f38906113a690899089908790600401611c9b565b5f80516020611cd083398151915254604051639cd07acb60e01b81525f915f80516020611cf0833981519152916001600160a01b0390911690639cd07acb9061150f9087908790600401611cbb565b6020604051808303815f875af115801561152b573d5f803e3d5ffd5b505050506040513d601f19601f8201168201806040525081019061133b9190611c84565b5f8082156115625750600160f81b611565565b505f5b5f80516020611cd083398151915254604051630afe14ad60e31b81525f80516020611cf0833981519152916001600160a01b0316906357f0a568906113a690899089908790600401611c9b565b5f8082156115c55750600160f81b6115c8565b505f5b5f80516020611cd0833981519152546040516348fcc7ff60e11b81525f80516020611cf0833981519152916001600160a01b0316906391f98ffe906113a690899089908790600401611c9b565b5f8082156116285750600160f81b61162b565b505f5b5f80516020611cd083398151915254604051631d44e90160e21b81525f80516020611cf0833981519152916001600160a01b031690637513a404906113a690899089908790600401611c9b565b5f610fd882611687575f61168a565b60015b60ff165f6114c0565b5f805f80516020611cf08339815191526001810154604051637702dcff60e01b81526004810188905260248101879052604481018690529192506001600160a01b031690637702dcff906064016020604051808303815f875af11580156116fc573d5f803e3d5ffd5b505050506040513d601f19601f820116820180604052508101906117209190611c84565b95945050505050565b80356001600160a01b038116811461173f575f80fd5b919050565b5f8060408385031215611755575f80fd5b8235915061176560208401611729565b90509250929050565b5f8083601f84011261177e575f80fd5b5081356001600160401b03811115611794575f80fd5b6020830191508360208260051b85010111156117ae575f80fd5b9250929050565b5f805f805f805f6080888a0312156117cb575f80fd5b8735965060208801356001600160401b03808211156117e8575f80fd5b6117f48b838c0161176e565b909850965060408a013591508082111561180c575f80fd5b6118188b838c0161176e565b909650945060608a0135915080821115611830575f80fd5b5061183d8a828b0161176e565b989b979a50959850939692959293505050565b5f60208284031215611860575f80fd5b5035919050565b5f805f805f805f80888a0360c081121561187f575f80fd5b6118888a611729565b985060208a01356001600160401b03808211156118a3575f80fd5b6118af8d838e0161176e565b909a50985060408c01359150808211156118c7575f80fd5b6118d38d838e0161176e565b909850965060608c01359150808211156118eb575f80fd5b506118f88c828d0161176e565b9095509350506040607f198201121561190f575f80fd5b506080890190509295985092959890939650565b5f805f8060608587031215611936575f80fd5b843593506020850135925060408501356001600160401b038082111561195a575f80fd5b818701915087601f83011261196d575f80fd5b81358181111561197b575f80fd5b88602082850101111561198c575f80fd5b95989497505060200194505050565b634e487b7160e01b5f52603260045260245ffd5b5f602082840312156119bf575f80fd5b610fd582611729565b5f808335601e198436030181126119dd575f80fd5b8301803591506001600160401b038211156119f6575f80fd5b6020019150368190038213156117ae575f80fd5b81835281816020850137505f828201602090810191909152601f909101601f19169091010190565b60018060a01b0385168152836020820152606060408201525f6113e6606083018486611a0a565b5f60208284031215611a69575f80fd5b81518015158114611151575f80fd5b60208082526024908201527f416e696d6144697370657273653a20696e6163746976652064697374726962756040820152633a34b7b760e11b606082015260800190565b634e487b7160e01b5f52601160045260245ffd5b5f60018201611ae157611ae1611abc565b5060010190565b80356001600160401b038116811461173f575f80fd5b5f60408284031215611b0e575f80fd5b604051604081018181106001600160401b0382111715611b3c57634e487b7160e01b5f52604160045260245ffd5b604052611b4883611ae8565b8152611b5660208401611ae8565b60208201529392505050565b6001600160a01b03868116825285166020820152604081018490526080606082018190525f90611b959083018486611a0a565b979650505050505050565b80820180821115610fd857610fd8611abc565b81810381811115610fd857610fd8611abc565b8082028115828204841417610fd857610fd8611abc565b5f82611bf757634e487b7160e01b5f52601260045260245ffd5b500490565b60548110611c1857634e487b7160e01b5f52602160045260245ffd5b9052565b8481525f602060018060a01b03861660208401526080604084015284518060808501525f5b81811015611c5d5786810183015185820160a001528201611c41565b505f60a0828601015260a0601f19601f830116850101925050506117206060830184611bfc565b5f60208284031215611c94575f80fd5b5051919050565b92835260208301919091526001600160f81b031916604082015260600190565b828152604081016111516020830184611bfc56fe9e7b61f58c47dc699ac88507c4f5bb9f121c03808c5676a8078fe583e46497019e7b61f58c47dc699ac88507c4f5bb9f121c03808c5676a8078fe583e46497009b779b17422d0df92223018b32b4d1fa46e071723d6817e2486d003becc55f00a2646970667358221220d18eac59ce6824c01bc66aa8c948ec606ebff0532c05187b5609bae1598ed94b64736f6c63430008180033",
  "linkReferences": {},
  "deployedLinkReferences": {}
}