{
  "_format": "hh-sol-artifact-1",
  "contractName": "MockERC7984Wrapper",
  "sourceName": "src/mocks/MockERC7984Wrapper.sol",
  "abi": [
    {
      "inputs": [
        {
          "internalType": "string",
          "name": "name_",
          "type": "string"
        },
        {
          "internalType": "string",
          "name": "symbol_",
          "type": "string"
        },
        {
          "internalType": "address",
          "name": "underlying_",
          "type": "address"
        }
      ],
      "stateMutability": "nonpayable",
      "type": "constructor"
    },
    {
      "inputs": [
        {
          "internalType": "bytes32",
          "name": "handle",
          "type": "bytes32"
        },
        {
          "internalType": "address",
          "name": "sender",
          "type": "address"
        }
      ],
      "name": "SenderNotAllowedToUseHandle",
      "type": "error"
    },
    {
      "inputs": [],
      "name": "ZamaProtocolUnsupported",
      "type": "error"
    },
    {
      "anonymous": false,
      "inputs": [
        {
          "indexed": true,
          "internalType": "address",
          "name": "user",
          "type": "address"
        },
        {
          "indexed": false,
          "internalType": "externalEuint64",
          "name": "encAmount",
          "type": "bytes32"
        }
      ],
      "name": "Unwrap",
      "type": "event"
    },
    {
      "anonymous": false,
      "inputs": [
        {
          "indexed": true,
          "internalType": "address",
          "name": "user",
          "type": "address"
        },
        {
          "indexed": false,
          "internalType": "externalEuint64",
          "name": "encAmount",
          "type": "bytes32"
        }
      ],
      "name": "Wrap",
      "type": "event"
    },
    {
      "inputs": [
        {
          "internalType": "address",
          "name": "account",
          "type": "address"
        }
      ],
      "name": "balanceOf",
      "outputs": [
        {
          "internalType": "euint64",
          "name": "",
          "type": "bytes32"
        }
      ],
      "stateMutability": "view",
      "type": "function"
    },
    {
      "inputs": [],
      "name": "confidentialProtocolId",
      "outputs": [
        {
          "internalType": "uint256",
          "name": "",
          "type": "uint256"
        }
      ],
      "stateMutability": "view",
      "type": "function"
    },
    {
      "inputs": [],
      "name": "decimals",
      "outputs": [
        {
          "internalType": "uint8",
          "name": "",
          "type": "uint8"
        }
      ],
      "stateMutability": "view",
      "type": "function"
    },
    {
      "inputs": [
        {
          "internalType": "address",
          "name": "to",
          "type": "address"
        },
        {
          "internalType": "uint256",
          "name": "amount",
          "type": "uint256"
        }
      ],
      "name": "mint",
      "outputs": [],
      "stateMutability": "nonpayable",
      "type": "function"
    },
    {
      "inputs": [],
      "name": "mintCallCount",
      "outputs": [
        {
          "internalType": "uint256",
          "name": "",
          "type": "uint256"
        }
      ],
      "stateMutability": "view",
      "type": "function"
    },
    {
      "inputs": [
        {
          "internalType": "address",
          "name": "to",
          "type": "address"
        },
        {
          "internalType": "uint256",
          "name": "amount",
          "type": "uint256"
        }
      ],
      "name": "mintEncrypted",
      "outputs": [],
      "stateMutability": "nonpayable",
      "type": "function"
    },
    {
      "inputs": [],
      "name": "name",
      "outputs": [
        {
          "internalType": "string",
          "name": "",
          "type": "string"
        }
      ],
      "stateMutability": "view",
      "type": "function"
    },
    {
      "inputs": [],
      "name": "symbol",
      "outputs": [
        {
          "internalType": "string",
          "name": "",
          "type": "string"
        }
      ],
      "stateMutability": "view",
      "type": "function"
    },
    {
      "inputs": [],
      "name": "underlying",
      "outputs": [
        {
          "internalType": "address",
          "name": "",
          "type": "address"
        }
      ],
      "stateMutability": "view",
      "type": "function"
    },
    {
      "inputs": [
        {
          "internalType": "externalEuint64",
          "name": "encAmount",
          "type": "bytes32"
        },
        {
          "internalType": "bytes",
          "name": "proof",
          "type": "bytes"
        }
      ],
      "name": "unwrap",
      "outputs": [],
      "stateMutability": "nonpayable",
      "type": "function"
    },
    {
      "inputs": [],
      "name": "unwrapCallCount",
      "outputs": [
        {
          "internalType": "uint256",
          "name": "",
          "type": "uint256"
        }
      ],
      "stateMutability": "view",
      "type": "function"
    },
    {
      "inputs": [
        {
          "internalType": "externalEuint64",
          "name": "encAmount",
          "type": "bytes32"
        },
        {
          "internalType": "bytes",
          "name": "proof",
          "type": "bytes"
        }
      ],
      "name": "wrap",
      "outputs": [],
      "stateMutability": "nonpayable",
      "type": "function"
    },
    {
      "inputs": [],
      "name": "wrapCallCount",
      "outputs": [
        {
          "internalType": "uint256",
          "name": "",
          "type": "uint256"
        }
      ],
      "stateMutability": "view",
      "type": "function"
    }
  ],
  "bytecode": "0x608060405234801562000010575f80fd5b506040516200124d3803806200124d8339810160408190526200003391620003ab565b620000ea6200004162000138565b80517f9e7b61f58c47dc699ac88507c4f5bb9f121c03808c5676a8078fe583e464970080546001600160a01b03199081166001600160a01b039384161790915560208301517f9e7b61f58c47dc699ac88507c4f5bb9f121c03808c5676a8078fe583e46497018054831691841691909117905560408301517f9e7b61f58c47dc699ac88507c4f5bb9f121c03808c5676a8078fe583e46497028054909216921691909117905550565b5f620000f78482620004bc565b506001620001068382620004bc565b50600280546001600160a01b03909216610100026001600160a81b031990921691909117600617905550620005889050565b604080516060810182525f808252602082018190529181019190915246600103620001d2575060408051606080820183525f8083526020808401829052928401528251908101835273ca2e8f1f656cd25c01f05d0b243ab1ecd4a8ffb6815273d82385dada1ae3e969447f20a3164f6213100e75918101919091527377627828a55156b04ac0dc0eb30467f1a552bb039181019190915290565b4662aa36a70362000252575060408051606080820183525f8083526020808401829052928401528251908101835273f0ffdc93b7e186bc2f8cb3daa75d86d1930a433d81527392c920834ec8941d2c77d188936e1f7a6f49c1279181019190915273be0e383937d564d7ff0bc3b46c51f0bf8d5c311a9181019190915290565b46617a6903620002d1575060408051606080820183525f808352602080840182905292840152825190810183527350157cffd6bbfa2dece204a89ec419c23ef5755d815273e3a9105a3a932253a70f126eb1e3b589c643dd249181019190915273901f8942346f7ab3a01f6d7613119bca447bb0309181019190915290565b6040516373cac13b60e01b815260040160405180910390fd5b634e487b7160e01b5f52604160045260245ffd5b5f82601f8301126200030e575f80fd5b81516001600160401b03808211156200032b576200032b620002ea565b604051601f8301601f19908116603f01168101908282118183101715620003565762000356620002ea565b816040528381526020925086602085880101111562000373575f80fd5b5f91505b8382101562000396578582018301518183018401529082019062000377565b5f602085830101528094505050505092915050565b5f805f60608486031215620003be575f80fd5b83516001600160401b0380821115620003d5575f80fd5b620003e387838801620002fe565b94506020860151915080821115620003f9575f80fd5b506200040886828701620002fe565b604086015190935090506001600160a01b038116811462000427575f80fd5b809150509250925092565b600181811c908216806200044757607f821691505b6020821081036200046657634e487b7160e01b5f52602260045260245ffd5b50919050565b601f821115620004b757805f5260205f20601f840160051c81016020851015620004935750805b601f840160051c820191505b81811015620004b4575f81556001016200049f565b50505b505050565b81516001600160401b03811115620004d857620004d8620002ea565b620004f081620004e9845462000432565b846200046c565b602080601f83116001811462000526575f84156200050e5750858301515b5f19600386901b1c1916600185901b17855562000580565b5f85815260208120601f198616915b82811015620005565788860151825594840194600190910190840162000535565b50858210156200057457878501515f19600388901b60f8161c191681555b505060018460011b0185555b505050505050565b610cb780620005965f395ff3fe608060405234801561000f575f80fd5b50600436106100cb575f3560e01c80636f307dc31161008857806395d89b411161006357806395d89b41146101b4578063d2e6e7ff146101bc578063dcd56a41146101c5578063ebb475da146101d8575f80fd5b80636f307dc31461015457806370a08231146101845780638927b030146101ac575f80fd5b8063021ac541146100cf57806306fdde03146100e45780630e14463914610102578063313ce5671461011957806340c10f19146101385780634d83f7271461014b575b5f80fd5b6100e26100dd366004610a2f565b6101eb565b005b6100ec610260565b6040516100f99190610a9a565b60405180910390f35b61010b60065481565b6040519081526020016100f9565b6002546101269060ff1681565b60405160ff90911681526020016100f9565b6100e2610146366004610a2f565b6102eb565b61010b60045481565b60025461016c9061010090046001600160a01b031681565b6040516001600160a01b0390911681526020016100f9565b61010b610192366004610aac565b6001600160a01b03165f9081526003602052604090205490565b61010b610324565b6100ec610332565b61010b60055481565b6100e26101d3366004610ac5565b61033f565b6100e26101e6366004610ac5565b61041f565b6001600160a01b0382165f9081526003602052604090205461021590610210836104f5565b610511565b6001600160a01b0383165f90815260036020526040902081905561023890610546565b506001600160a01b0382165f9081526003602052604090205461025b9083610566565b505050565b5f805461026c90610b3a565b80601f016020809104026020016040519081016040528092919081815260200182805461029890610b3a565b80156102e35780601f106102ba576101008083540402835291602001916102e3565b820191905f5260205f20905b8154815290600101906020018083116102c657829003601f168201915b505050505081565b60068054905f6102fa83610b72565b90915550506001600160a01b0382165f9081526003602052604090205461021590610210836104f5565b5f61032d610589565b905090565b6001805461026c90610b3a565b60058054905f61034e83610b72565b91905055505f6103938484848080601f0160208091040260200160405190810160405280939291908181526020018383808284375f920191909152506105bd92505050565b335f908152600360205260409020549091506103af9082610627565b335f9081526003602052604090208190556103c990610546565b50335f818152600360205260409020546103e291610566565b5060405184815233907f3d5b86e51dc1f9c91361106a35c4cec158906138f49874fb4f7f84b3c4a9261c906020015b60405180910390a250505050565b60048054905f61042e83610b72565b91905055505f6104738484848080601f0160208091040260200160405190810160405280939291908181526020018383808284375f920191909152506105bd92505050565b335f9081526003602052604090205490915061048f9082610511565b335f9081526003602052604090208190556104a990610546565b50335f818152600360205260409020546104c291610566565b5060405184815233907fca1269fcdfc71c741f6c732ee33142575d5691dd69a42d56b86f6d20988cba5d90602001610411565b5f61050b8267ffffffffffffffff166005610655565b92915050565b5f82610523576105205f6104f5565b92505b81610534576105315f6104f5565b91505b61053f83835f6106ec565b9392505050565b5f81610558576105555f6104f5565b91505b61056282306107a9565b5090565b5f82610578576105755f6104f5565b92505b61058283836107a9565b5090919050565b5f466001036105985750600190565b4662aa36a7036105a9575061271190565b46617a69036105b857505f1990565b505f90565b5f81515f146105d9576105d28383600561081f565b905061050b565b825f8190036105f3576105eb5f6104f5565b91505061050b565b6105fd8133610919565b6105d257604051630276b5d960e01b81526004810182905233602482015260440160405180910390fd5b5f82610639576106365f6104f5565b92505b8161064a576106475f6104f5565b91505b61053f83835f61099d565b5f80516020610c4283398151915254604051639cd07acb60e01b81525f915f80516020610c62833981519152916001600160a01b0390911690639cd07acb906106a49087908790600401610bb6565b6020604051808303815f875af11580156106c0573d5f803e3d5ffd5b505050506040513d601f19601f820116820180604052508101906106e49190610bca565b949350505050565b5f8082156106ff5750600160f81b610702565b505f5b5f80516020610c428339815191525460405163022f65e760e31b815260048101879052602481018690526001600160f81b0319831660448201525f80516020610c62833981519152916001600160a01b03169063117b2f38906064015b6020604051808303815f875af115801561077b573d5f803e3d5ffd5b505050506040513d601f19601f8201168201806040525081019061079f9190610bca565b9695505050505050565b5f5f80516020610c628339815191528054604051635ca4b5b160e11b8152600481018690526001600160a01b03858116602483015292935091169063b9496b62906044015f604051808303815f87803b158015610804575f80fd5b505af1158015610816573d5f803e3d5ffd5b50505050505050565b5f80516020610c428339815191525460405163045fc19560e11b81525f915f80516020610c62833981519152916001600160a01b03909116906308bf832a90610872908890339089908990600401610be1565b6020604051808303815f875af115801561088e573d5f803e3d5ffd5b505050506040513d601f19601f820116820180604052508101906108b29190610bca565b8154604051630f8e573b60e21b8152600481018390523360248201529193506001600160a01b031690633e395cec906044015f604051808303815f87803b1580156108fb575f80fd5b505af115801561090d573d5f803e3d5ffd5b50505050509392505050565b5f805f80516020610c6283398151915280546040516382027b6d60e01b8152600481018790526001600160a01b0386811660248301529293509116906382027b6d90604401602060405180830381865afa158015610979573d5f803e3d5ffd5b505050506040513d601f19601f820116820180604052508101906106e49190610c22565b5f8082156109b05750600160f81b6109b3565b505f5b5f80516020610c42833981519152546040516303056db360e31b815260048101879052602481018690526001600160f81b0319831660448201525f80516020610c62833981519152916001600160a01b03169063182b6d989060640161075f565b80356001600160a01b0381168114610a2a575f80fd5b919050565b5f8060408385031215610a40575f80fd5b610a4983610a14565b946020939093013593505050565b5f81518084525f5b81811015610a7b57602081850181015186830182015201610a5f565b505f602082860101526020601f19601f83011685010191505092915050565b602081525f61053f6020830184610a57565b5f60208284031215610abc575f80fd5b61053f82610a14565b5f805f60408486031215610ad7575f80fd5b83359250602084013567ffffffffffffffff80821115610af5575f80fd5b818601915086601f830112610b08575f80fd5b813581811115610b16575f80fd5b876020828501011115610b27575f80fd5b6020830194508093505050509250925092565b600181811c90821680610b4e57607f821691505b602082108103610b6c57634e487b7160e01b5f52602260045260245ffd5b50919050565b5f60018201610b8f57634e487b7160e01b5f52601160045260245ffd5b5060010190565b60548110610bb257634e487b7160e01b5f52602160045260245ffd5b9052565b8281526040810161053f6020830184610b96565b5f60208284031215610bda575f80fd5b5051919050565b8481526001600160a01b03841660208201526080604082018190525f90610c0a90830185610a57565b9050610c196060830184610b96565b95945050505050565b5f60208284031215610c32575f80fd5b8151801515811461053f575f80fdfe9e7b61f58c47dc699ac88507c4f5bb9f121c03808c5676a8078fe583e46497019e7b61f58c47dc699ac88507c4f5bb9f121c03808c5676a8078fe583e4649700a264697066735822122035c865a3e6df507a9ac2371690e1fa5523ea42b7d7b6a077434f147b4511f57064736f6c63430008180033",
  "linkReferences": {},
  "deployedLinkReferences": {}
}