{
  "_format": "hh-sol-artifact-1",
  "contractName": "MockZamaWrappersRegistry",
  "sourceName": "src/mocks/MockZamaWrappersRegistry.sol",
  "abi": [
    {
      "anonymous": false,
      "inputs": [
        {
          "indexed": true,
          "internalType": "uint256",
          "name": "id",
          "type": "uint256"
        },
        {
          "indexed": true,
          "internalType": "address",
          "name": "erc20",
          "type": "address"
        },
        {
          "indexed": true,
          "internalType": "address",
          "name": "erc7984",
          "type": "address"
        }
      ],
      "name": "PairRegistered",
      "type": "event"
    },
    {
      "inputs": [
        {
          "internalType": "address",
          "name": "erc20",
          "type": "address"
        }
      ],
      "name": "getPairByERC20",
      "outputs": [
        {
          "components": [
            {
              "internalType": "address",
              "name": "erc20",
              "type": "address"
            },
            {
              "internalType": "address",
              "name": "erc7984",
              "type": "address"
            },
            {
              "internalType": "string",
              "name": "name",
              "type": "string"
            },
            {
              "internalType": "string",
              "name": "symbol",
              "type": "string"
            },
            {
              "internalType": "uint8",
              "name": "decimals",
              "type": "uint8"
            }
          ],
          "internalType": "struct MockZamaWrappersRegistry.Pair",
          "name": "",
          "type": "tuple"
        }
      ],
      "stateMutability": "view",
      "type": "function"
    },
    {
      "inputs": [
        {
          "internalType": "address",
          "name": "erc7984",
          "type": "address"
        }
      ],
      "name": "getPairByERC7984",
      "outputs": [
        {
          "components": [
            {
              "internalType": "address",
              "name": "erc20",
              "type": "address"
            },
            {
              "internalType": "address",
              "name": "erc7984",
              "type": "address"
            },
            {
              "internalType": "string",
              "name": "name",
              "type": "string"
            },
            {
              "internalType": "string",
              "name": "symbol",
              "type": "string"
            },
            {
              "internalType": "uint8",
              "name": "decimals",
              "type": "uint8"
            }
          ],
          "internalType": "struct MockZamaWrappersRegistry.Pair",
          "name": "",
          "type": "tuple"
        }
      ],
      "stateMutability": "view",
      "type": "function"
    },
    {
      "inputs": [],
      "name": "pairCount",
      "outputs": [
        {
          "internalType": "uint256",
          "name": "",
          "type": "uint256"
        }
      ],
      "stateMutability": "view",
      "type": "function"
    },
    {
      "inputs": [
        {
          "internalType": "uint256",
          "name": "id",
          "type": "uint256"
        }
      ],
      "name": "pairs",
      "outputs": [
        {
          "components": [
            {
              "internalType": "address",
              "name": "erc20",
              "type": "address"
            },
            {
              "internalType": "address",
              "name": "erc7984",
              "type": "address"
            },
            {
              "internalType": "string",
              "name": "name",
              "type": "string"
            },
            {
              "internalType": "string",
              "name": "symbol",
              "type": "string"
            },
            {
              "internalType": "uint8",
              "name": "decimals",
              "type": "uint8"
            }
          ],
          "internalType": "struct MockZamaWrappersRegistry.Pair",
          "name": "",
          "type": "tuple"
        }
      ],
      "stateMutability": "view",
      "type": "function"
    },
    {
      "inputs": [
        {
          "internalType": "address",
          "name": "erc20",
          "type": "address"
        },
        {
          "internalType": "address",
          "name": "erc7984",
          "type": "address"
        },
        {
          "internalType": "string",
          "name": "name",
          "type": "string"
        },
        {
          "internalType": "string",
          "name": "symbol",
          "type": "string"
        },
        {
          "internalType": "uint8",
          "name": "decimals",
          "type": "uint8"
        }
      ],
      "name": "registerPair",
      "outputs": [],
      "stateMutability": "nonpayable",
      "type": "function"
    }
  ],
  "bytecode": "0x608060405234801561000f575f80fd5b50610b138061001d5f395ff3fe608060405234801561000f575f80fd5b5060043610610055575f3560e01c8063043f17f814610059578063173fd1db1461006e578063968fcff214610083578063a47b0fd4146100a3578063b91ac788146100b6575b5f80fd5b61006c6100673660046107bd565b6100c9565b005b5f546040519081526020015b60405180910390f35b610096610091366004610860565b610279565b60405161007a91906108c3565b6100966100b1366004610860565b6104a0565b6100966100c4366004610935565b61053f565b5f6040518060a00160405280896001600160a01b03168152602001886001600160a01b0316815260200187878080601f0160208091040260200160405190810160405280939291908181526020018383808284375f92019190915250505090825250604080516020601f8801819004810282018101909252868152918101919087908790819084018382808284375f92018290525093855250505060ff851660209283015283546001808201865594825290829020835160059092020180546001600160a01b03199081166001600160a01b0393841617825592840151948101805490931694909116939093179055604081015190919060028201906101cf90826109e4565b50606082015160038201906101e490826109e4565b50608091909101516004909101805460ff191660ff9092169190911790555f805461021190600190610aa4565b6001600160a01b03808a165f818152600160209081526040808320869055938c16808352600290915283822085905592519394509192909184917f48b2a13bfd191ec38a3d618e8e0046f88c8a82a77cbfff794319dbe85ee9a2b59190a45050505050505050565b61028161071c565b6001600160a01b0382165f81815260016020526040812054815490929190839081106102af576102af610ac9565b5f9182526020909120600590910201546001600160a01b03161461031a5760405162461bcd60e51b815260206004820152601e60248201527f4d6f636b52656769737472793a204552432d3230206e6f7420666f756e64000060448201526064015b60405180910390fd5b5f818154811061032c5761032c610ac9565b5f9182526020918290206040805160a081018252600590930290910180546001600160a01b039081168452600182015416938301939093526002830180549293929184019161037a90610960565b80601f01602080910402602001604051908101604052809291908181526020018280546103a690610960565b80156103f15780601f106103c8576101008083540402835291602001916103f1565b820191905f5260205f20905b8154815290600101906020018083116103d457829003601f168201915b5050505050815260200160038201805461040a90610960565b80601f016020809104026020016040519081016040528092919081815260200182805461043690610960565b80156104815780601f1061045857610100808354040283529160200191610481565b820191905f5260205f20905b81548152906001019060200180831161046457829003601f168201915b50505091835250506004919091015460ff166020909101529392505050565b6104a861071c565b6001600160a01b0382165f81815260026020526040812054815490929190839081106104d6576104d6610ac9565b5f9182526020909120600160059092020101546001600160a01b03161461031a5760405162461bcd60e51b815260206004820181905260248201527f4d6f636b52656769737472793a204552432d37393834206e6f7420666f756e646044820152606401610311565b61054761071c565b5f5482106105975760405162461bcd60e51b815260206004820152601d60248201527f4d6f636b52656769737472793a20696e76616c696420706169722069640000006044820152606401610311565b5f82815481106105a9576105a9610ac9565b5f9182526020918290206040805160a081018252600590930290910180546001600160a01b03908116845260018201541693830193909352600283018054929392918401916105f790610960565b80601f016020809104026020016040519081016040528092919081815260200182805461062390610960565b801561066e5780601f106106455761010080835404028352916020019161066e565b820191905f5260205f20905b81548152906001019060200180831161065157829003601f168201915b5050505050815260200160038201805461068790610960565b80601f01602080910402602001604051908101604052809291908181526020018280546106b390610960565b80156106fe5780601f106106d5576101008083540402835291602001916106fe565b820191905f5260205f20905b8154815290600101906020018083116106e157829003601f168201915b50505091835250506004919091015460ff1660209091015292915050565b6040518060a001604052805f6001600160a01b031681526020015f6001600160a01b0316815260200160608152602001606081526020015f60ff1681525090565b80356001600160a01b0381168114610773575f80fd5b919050565b5f8083601f840112610788575f80fd5b50813567ffffffffffffffff81111561079f575f80fd5b6020830191508360208285010111156107b6575f80fd5b9250929050565b5f805f805f805f60a0888a0312156107d3575f80fd5b6107dc8861075d565b96506107ea6020890161075d565b9550604088013567ffffffffffffffff80821115610806575f80fd5b6108128b838c01610778565b909750955060608a013591508082111561082a575f80fd5b506108378a828b01610778565b909450925050608088013560ff81168114610850575f80fd5b8091505092959891949750929550565b5f60208284031215610870575f80fd5b6108798261075d565b9392505050565b5f81518084525f5b818110156108a457602081850181015186830182015201610888565b505f602082860101526020601f19601f83011685010191505092915050565b602081525f60018060a01b0380845116602084015280602085015116604084015250604083015160a060608401526108fe60c0840182610880565b90506060840151601f1984830301608085015261091b8282610880565b91505060ff60808501511660a08401528091505092915050565b5f60208284031215610945575f80fd5b5035919050565b634e487b7160e01b5f52604160045260245ffd5b600181811c9082168061097457607f821691505b60208210810361099257634e487b7160e01b5f52602260045260245ffd5b50919050565b601f8211156109df57805f5260205f20601f840160051c810160208510156109bd5750805b601f840160051c820191505b818110156109dc575f81556001016109c9565b50505b505050565b815167ffffffffffffffff8111156109fe576109fe61094c565b610a1281610a0c8454610960565b84610998565b602080601f831160018114610a45575f8415610a2e5750858301515b5f19600386901b1c1916600185901b178555610a9c565b5f85815260208120601f198616915b82811015610a7357888601518255948401946001909101908401610a54565b5085821015610a9057878501515f19600388901b60f8161c191681555b505060018460011b0185555b505050505050565b81810381811115610ac357634e487b7160e01b5f52601160045260245ffd5b92915050565b634e487b7160e01b5f52603260045260245ffdfea26469706673582212204261791c7410495d6646ea7c4c503dfefb4576fd73488575d185b85a54a01f4f64736f6c63430008180033",
  "linkReferences": {},
  "deployedLinkReferences": {}
}